:020000040000FA
:100000000C9459010C9481010C9481010C94810190
:100010000C9481010C9481010C9481010C94810158
:100020000C9481010C9481010C9481010C94810148
:100030000C9481010C9481010C9481010C94810138
:100040000C9406200C9481010C9476200C94502082
:100050000C9481010C9481010C9481010C94810118
:100060000C9481010C94810100407A10F35A00A095
:10007000724E18090010A5D4E80000E87648170071
:1000800000E40B54020000CA9A3B000000E1F505B1
:10009000000080969800000040420F000000A086FB
:1000A00001000000102700000000E803000000002D
:1000B0006400000000000A000000000001000000D1
:1000C00000002C76D888DC674F0823DFC1DFAE59EB
:1000D000E1B1B796E5E3E453C63AE651997696E87E
:1000E000E6C28426EB898C9B62ED407C6FFCEFBC02
:1000F0009C9F40F2BAA56FA5F490055A2AF75C932D
:100100006B6CF9676DC11BFCE0E40D47FEF520E662
:10011000B500D0ED902E0300943577050080841E45
:10012000080000204E0A000000C80C333333330FA0
:10013000986E12831141EF8D2114893BE65516CF3D
:10014000FEE6DB18D1844B381BF77C1D901DA4BB49
:10015000E424203284725E228100C9F124ECA1E5FE
:100160003D2725732573007B227375636365737365
:10017000223A66616C73652C22636F6465223A349F
:1001800030347D007B2273756363657373223A7428
:100190007275652C22726573756C74223A22257310
:1001A000227D007B2273756363657373223A7472D8
:1001B00075652C2272656C6179223A25752C227541
:1001C0007074696D65223A256C757D00676574539E
:1001D00074617475730073657452656C6179007B2A
:1001E0002274656D7065726174757265223A25734B
:1001F0002C202268756D6964697479223A25732C04
:10020000226C6D333554656D70223A25732C22763D
:100210006962726174696F6E223A25752C226D6174
:100220006368696E65537461747573223A25752C21
:10023000202272656C61795374617465223A257568
:100240002C2273656E736F724572726F72223A253B
:10025000757D0000000000240027002A0000000037
:1002600000250028002B000000000800020100000B
:10027000030407000000000000000000000000234D
:1002800000260029000404040404040404020202F9
:1002900002020203030303030301020408102040C7
:1002A0008001020408102001020408102000A82088
:1002B000502711241FBECFEFD8E0DEBFCDBF12E024
:1002C000A0E0B1E0EAE4F2E602C005900D92A037AA
:1002D000B107D9F725E0A0E7B2E001C01D92AC322A
:1002E000B207E1F711E0C8E5D1E004C02197FE01B3
:1002F0000E94782FC735D107C9F70E94B6210C9408
:1003000018310C940000CF92DF92EF92FF92CF93BE
:10031000DF93B0911C05A0E08111AB2F80911D05EA
:1003200090E0880F991FAC0145585D4FC0902205A1
:10033000D0902305E0902405F090250530E020E0E2
:10034000FA01C591D491E881B90190E080E0EB23F6
:10035000EA130AC02F5F3F4F6C157D058E059F0580
:1003600078F36FEF7FEFCB01DF91CF91FF90EF90AC
:10037000DF90CF900895CF93DF93EC01FA0132968E
:10038000E60FF71FDC019D012C1B3D0BCF01861BE7
:10039000970B4D91442311F04193F5CFAC01421BD3
:1003A000530B640F751FFB01329730836150710945
:1003B000FB012083DF91CF9108958CBD9DBD0895F1
:1003C00020E3FC0120833296862F82958F706F7018
:1003D0006A3030F4605D6293682F8111F5CF089523
:1003E000695CF9CFFC01818D928D08950895833069
:1003F00081F028F4813099F08230A9F00895873097
:10040000A9F08830C9F08430B1F4809180008F7DEC
:1004100003C0809180008F7780938000089584B519
:100420008F7784BD089584B58F7DFBCF8091B00018
:100430008F778093B00008958091B0008F7DF9CFC1
:100440001F93CF93DF93282F30E0F901E959FD4F37
:100450008491F901E756FD4FD491F901EB57FD4F17
:10046000C491CC23A9F0162F81110E94F701EC2F23
:10047000F0E0EE0FFF1FE35AFD4FA591B4918FB747
:10048000F894EC91111108C0D095DE23DC938FBF56
:10049000DF91CF911F910895DE2BF8CFCF93DF939B
:1004A00090E0FC01E756FD4F24918B579D4FFC01D6
:1004B00084918823D1F090E0880F991FFC01ED5AB8
:1004C000FD4FA591B491FC01E35AFD4FC591D49124
:1004D000623071F49FB7F8943C91822F809583230A
:1004E0008C93E8812E2B28839FBFDF91CF910895B5
:1004F0008FB7F894EC912E2B2C938FBFF6CF8E50A4
:10050000806480937C0080917A00806480937A007C
:1005100080917A0086FDFCCF8091780090917900DF
:1005200008953FB7F8948091CB039091CC03A091AC
:10053000CD03B091CE0326B5A89B05C02F3F19F07F
:100540000196A11DB11D3FBFBA2FA92F982F882753
:10055000BC01CD01620F711D811D911D42E0660F2E
:10056000771F881F991F4A95D1F708958F929F9200
:10057000AF92BF92CF92DF92EF92FF924B015C015C
:100580000E9491026B017C010E9491026C197D090D
:100590008E099F09683E734081059105A8F321E00B
:1005A000821A9108A108B10888EEC80E83E0D81E0F
:1005B000E11CF11C81149104A104B10429F7FF90FE
:1005C000EF90DF90CF90BF90AF909F908F90089565
:1005D0002FB7F8946091C7037091C8038091C90345
:1005E0009091CA032FBF0895CF92DF92EF92FF92AE
:1005F0000F931F93CF93DF93CDB7DEB7C054D14095
:100600000FB6F894DEBF0FBECDBF0E94E802009186
:100610001E0510911F0520912005309121056B01C9
:100620007C01C01AD10AE20AF30A97018601003D53
:1006300017402105310590F480912605C05CDE4FFE
:100640000FB6F894DEBF0FBECDBFDF91CF911F91E3
:100650000F91FF90EF90DF90CF90089560931E056B
:1006600070931F0580932005909321051092190522
:100670001092180510921705109216051092150584
:1006800062E080911A050E944E0261E070E080E015
:1006900090E00E94B60261E080911A050E944E022D
:1006A00060E080911A050E94200280911B0585510F
:1006B000823020F58BE291E10197F1F762E08091C1
:1006C0001A050E944E028091270590E08230910524
:1006D00038F0880F991F880F991F05970197F1F738
:1006E000F89480E00E9483016F3F7F4F8F4F9F4FB0
:1006F00061F410922605789480E0A0CF64E170E068
:1007000080E090E00E94B602D9CF81E00E94830190
:100710006F3F7F4F8F4F9F4F61F38E010F5F1F4FD2
:100720006E012FEBC21A2EEFD20A780180E00E94F0
:100730008301F701608371838283938381E00E9448
:100740008301F7016483758386839783F8E0EF0E56
:10075000F11CEC14FD0451F7789430E020E0F8012E
:10076000C080D180E280F3804481558166817781A9
:10077000FFEFCF16DF06EF06FF0631F04F3F8FEF9A
:1007800058076807780719F410922605B5CFF901C4
:1007900083E0F595E7958A95E1F7EB5EFA4F808166
:1007A000880FC416D506E606F70610F180832F5F82
:1007B0003F4F085F1F4F2832310589F640911905D8
:1007C0002091150580911605280F3327331F80913E
:1007D0001705280F311D80911805820F932F911D49
:1007E00099274817190681F681E08093260526CFC0
:1007F0008160DCCF809174020895AF92BF92CF9256
:10080000DF92EF92FF920F931F93CF93DF936C01D0
:100810007B018B01040F151FEB015E01AE18BF08B1
:10082000C017D10759F06991D601ED91FC91019063
:10083000F081E02DC6010995892B79F7C501DF917B
:10084000CF911F910F91FF90EF90DF90CF90BF90CD
:10085000AF900895FC01538D448D252F30E0842FF7
:1008600090E0821B930B541710F0CF9608950197D8
:100870000895FC01918D828D981761F0A28DAE0FC5
:10088000BF2FB11D5D968C91928D9F5F9F73928F4C
:1008900090E008958FEF9FEF0895FC01918D828D78
:1008A000981731F0828DE80FF11D858D90E0089545
:1008B0008FEF9FEF0895FC01918D228D892F90E09D
:1008C000805C9F4F821B91098F73992708958CEE4E
:1008D00093E00E945B0421E0892B09F420E0822F41
:1008E000089580E090E0892B29F00E94670481112F
:1008F0000C9400000895FC01A48DA80FB92FB11D20
:10090000A35ABF4F2C91848D90E001968F73992745
:10091000848FA689B7892C93A089B1898C91837023
:1009200080648C93938D848D981306C00288F3891C
:10093000E02D80818F7D80830895EF92FF920F9349
:100940001F93CF93DF93EC0181E0888F9B8D8C8D7B
:1009500098131AC0E889F989808185FF15C09FB76F
:10096000F894EE89FF896083E889F9898081837032
:10097000806480839FBF81E090E0DF91CF911F91E1
:100980000F91FF90EF900895F62E0B8D10E00F5F02
:100990001F4F0F731127E02E8C8D8E110CC00FB6D8
:1009A00007FCFACFE889F989808185FFF5CFCE0170
:1009B0000E947B04F1CFEB8DEC0FFD2FF11DE35A6C
:1009C000FF4FF0829FB7F8940B8FEA89FB898081F3
:1009D0008062CFCFCF93DF93EC01888D8823B9F06D
:1009E000AA89BB89E889F9898C9185FD03C080813A
:1009F00086FD0DC00FB607FCF7CF8C9185FFF2CFB7
:100A0000808185FFEDCFCE010E947B04E9CFDF918D
:100A1000CF910895CF93DF93FC01A481B581109706
:100A200011F480E029C0EC01ED91FC91119706884A
:100A3000F789E02DCD0109952FA138A5811119C0A5
:100A4000232B79F78DEF9FEF98A78FA38C819D8142
:100A5000DC01ED91FC910680F781E02D09958C81F8
:100A60009D81DC01ED91FC910488F589E02D0995CB
:100A7000D8CF81E0232BA9F6DF91CF910895CF92B3
:100A8000DF92EF92FF920F931F93CF93DF9300D0EB
:100A900000D0CDB7DEB78C01F90180E0DE01119600
:100AA0007D019E2F9F77EE0FEF2FEE1FFF0BF1952D
:100AB000309709F09068D701A80FB11D9C938F5F04
:100AC000309779F790E0FA01E81BF90B6483FA019B
:100AD000E81BF90B3596D701BD016E197F09681720
:100AE00079071CF46D916193F7CFFC013196D80121
:100AF00014968D919C917F01E20EF31EBA016E1B3C
:100B00007F0B6B5F7F4FDC01ED91FC910280F381E5
:100B1000E02DA70109956C010E94E802F801608BA5
:100B2000718B828B938B81E0EC14FD0409F080E0E3
:100B30000F900F900F900F90DF91CF911F910F9119
:100B4000FF90EF90DF90CF900895EF92FF920F9378
:100B50001F93CF93DF93EC018B017A010E94E8028F
:100B6000688B798B8A8B9B8B8C819D81DC01ED91CD
:100B7000FC910280F381E02DA701B801DF91CF91B4
:100B80001F910F91FF90EF9009941F93CF93DF93E4
:100B9000EC01162F0E94E802688B798B8A8B9B8B65
:100BA0008C819D81DC01ED91FC910190F081E02D23
:100BB000612FDF91CF911F9109948F929F92AF92F5
:100BC000BF92CF92DF92EF92FF920F931F93CF933A
:100BD000DF93EC018B010E94E8024B015C018C81E8
:100BE0009D81DC01ED91FC910084F185E02D09955A
:100BF000892BA9F40E94E8026B017C01C818D9086E
:100C0000EA08FB082C853D85A8EEB3E00E94962DEE
:100C1000C616D706E806F90610F380E00CC08C81F2
:100C20009D81DC01ED91FC910284F385E02D099515
:100C3000F801808381E0DF91CF911F910F91FF90A8
:100C4000EF90DF90CF90BF90AF909F908F900895DE
:100C50003F924F925F926F927F928F929F92AF924C
:100C6000BF92CF92DF92EF92FF920F931F93CF9399
:100C7000DF93CDB7DEB764970FB6F894DEBF0FBE33
:100C8000CDBF8C016B01DC0116966D917C910E94A9
:100C9000DD0581111BC060E070E0CB0164960FB6EA
:100CA000F894DEBF0FBECDBFDF91CF911F910F91A2
:100CB000FF90EF90DF90CF90BF90AF909F908F907C
:100CC0007F906F905F904F903F900895D801169657
:100CD000ED91FC9130801982E1E0F0E0FB83EA8342
:100CE000412C512C3201812C912C54018394BE0152
:100CF0006F5F7F4FC8010E94DD05882361F2EA80A3
:100D0000FB80BFEFEB1AFB0A8981D8011696ED91A3
:100D1000FC912A813B81E20FF31F8083E981AE2F92
:100D2000AF77B0E0A50194010E942A2D460E571E10
:100D3000681E791E37E0880C991CAA1CBB1C3A95CA
:100D4000D1F7E7FD44C0332D307F332E8FEF8E0D6A
:100D5000D6018C93B0E33B1353C0F80166817781D1
:100D60006E0D7F1DC8010E94DD05882309F493CF15
:100D7000D80116966D917C918A819B810296680FAD
:100D8000791FC8010E94DD05882309F484CFEA8019
:100D9000FB80B3E0EB0EF11CD8011696ED91FC91AF
:100DA000D6018C91DF01A80FB11D11968C9111977E
:100DB00090E0982F882712962C91820F911D208108
:100DC00021FD0296F2E0E0E030E020E01FC0FB826F
:100DD000EA8297012530310509F089CF8FEF9FEF27
:100DE000D80198969C938E93979714968D919C9189
:100DF000DC01ED91FC910488F589E02D09954BCF3C
:100E0000F0E0E0E030E020E090E080E0A70170E07A
:100E100060E08F2E9E2EA32EB22E481959096A0922
:100E20007B094E835F83688779879C0150E040E0AF
:100E30002B873C874D875E874E815F8168857985EA
:100E4000480D591D6A1D7B1D4A835B836C837D831E
:100E500084149504A604B70408F051C0BE016F5F66
:100E60007F4FC8010E94DD05882309F414CFD80103
:100E700095960D90BC91A02DBC8BAB8BAB2B49F103
:100E8000B0E33B1226C0F60120814EEF5FEF6FEF1B
:100E90007FEF421B5109610971098A819B81AC81F5
:100EA000BD81480F591F6A1F7B1F8B859C85AD85AF
:100EB000BE8584179507A607B70758F4AB89BC8988
:100EC000ED91FC9111970190F081E02D6981CD01A8
:100ED0000995F80180859185E816F90650F4898115
:100EE0000680F781E02DEE0DFF1D8083FFEFEF1AE6
:100EF000FF0A2FEF821A920AA20AB20A9DCFD801E6
:100F000095968D919C919697892B81F418968D9149
:100F10009C91B0E0A0E02A813B814C815D818217E9
:100F20009307A407B50710F4F12CE12CB70190E06A
:100F300080E0B4CEFC0120812EBD9B0121503109FF
:100F400041F051810DB407FEFDCF4EB55EBD41931A
:100F5000F5CF61507109860F971F0DB407FEFDCFC5
:100F60002EB5FC0120830895E0917B02F0917C0274
:100F7000808190917A02892B80830895E0917B0291
:100F8000F0917C02908180917A0280958923808300
:100F900008958EBD00000DB407FEFDCF8EB50895F7
:100FA000AF92BF92CF92DF92EF92FF920F931F9377
:100FB000CF93DF93CDB7DEB728970FB6F894DEBF97
:100FC0000FBECDBF8C017B016A018091EB0383339F
:100FD000E1F45801A40EB51EA016B10609F46FC0C5
:100FE0000E94BE0780EF0E94C907812F0E94C90797
:100FF000802F0E94C9070F5F1F4FF70181917F016A
:101000000E94C9070E94B407E7CF5B01A40EB51E7A
:101010008433C1F40E94BE0719830A838D2D806832
:101020008B83CC8264E070E0CE0101960E949A0727
:10103000AE14BF0409F441C0F70181917F010E9401
:10104000C907F6CF0E94BE070F3F110509F028F42B
:1010500019820A8384E08B830CC017FD17C01982A4
:101060000A8333E0169507953A95E1F7007E0C6008
:101070000B8386E0C816D104A0F5F701DE011496B3
:10108000EA15FB0599F081918D93FACFC80126E00E
:10109000969587952A95E1F7807E19830A83011535
:1010A000104C10F48461D7CF8C61D5CFB6016D5F41
:1010B0007F4FCE0101960E949A070E94B407C60195
:1010C00028960FB6F894DEBF0FBECDBFDF91CF914B
:1010D0001F910F91FF90EF90DF90CF90BF90AF9056
:1010E000089563E070E0CE0101960E949A07F7012F
:1010F00081917F010E94C907AE14BF04C1F7DDCF03
:10110000CF93DF931F92CDB7DEB7898341E050E0E4
:10111000BE016F5F7F4F90E080E00E94D0070F908C
:10112000DF91CF91089590E02091EB03233339F4C0
:101130000C96982F990F990F990F80E00895489673
:10114000F8CFDA01E0917E02F0E0FE2FEE27E60F05
:10115000F71F90E0982F8827A901BD018E0F9F1FD0
:101160000C94D007CF93DF9300D0CDB7DEB779834F
:101170006A8322E030E0AE014F5F5F4F60E170E0D4
:101180000E94A1080F900F90DF91CF910895CF9307
:10119000DF9300D0CDB7DEB779836A8322E030E0F9
:1011A000AE014F5F5F4F64E070E00E94A1080F90B6
:1011B0000F90DF91CF910895CF93DF931F92CDB71A
:1011C000DEB720917E0230E0322F2227260F371F14
:1011D00090E0982F8827498341E050E0BE016F5F7F
:1011E0007F4F820F931F0E94D0070F90DF91CF9106
:1011F0000895CF93DF931F92CDB7DEB76983DC01EB
:10120000ED91FC910280F381E02D41E050E0BE01C0
:101210006F5F7F4F09950F90DF91CF9108950895EB
:10122000FC019485FB018485981303C081E0943010
:1012300008F080E00895CF93DF931F92CDB7DEB71B
:101240006983DC01ED91FC910280F381E02D41E0A6
:1012500050E0BE016F5F7F4F09950F90DF91CF91F6
:10126000089544E050E0BC018FE090E00C94D0077A
:101270000895FF920F931F93CF93DF93EB01FC012F
:10128000178A168A2A81211109C02B81211106C0D3
:101290002C81211103C02D81222301F1411551051B
:1012A000E9F08A01FC01F08C80E591E00E94DD010B
:1012B000AE014E5F5F4F24E030E06CE070E08F2DB8
:1012C0000E94A108B8018F2D0E94B20881E090E031
:1012D000DF91CF911F910F91FF90089580E0F7CF9C
:1012E000FC01848595850895FC018489958908957C
:1012F0002DE931E0FC0131832083FB0140895189D4
:1013000062897389FC0142835383648375830895E2
:10131000DC01ED91FC91048CF58DE02D099490E0B9
:1013200080E00895FC01768765870895DC01ED91E2
:10133000FC9102A0F3A1E02D099591E08927089581
:10134000862F089581E08627089521E0FC01848599
:10135000843008F020E0822F08950895AF92BF9264
:10136000CF92DF92EF92FF920F931F93CF93DF9371
:101370007C016B01EA0189010E940A05882309F4B6
:1013800042C0D7011896AD90BC90B501C6010E942D
:1013900026289801295F3F4F820F931FA816B90690
:1013A00090F1F7016681778145E050E0C6010E9427
:1013B000BB01BE01600F711FFE01EC01CE1BDF0BF4
:1013C0006E01CE0EDF1ED70116964D915C916E1701
:1013D0007F0731F02191D601A40FB51F2C93F0CFD8
:1013E000055011099801280F391F60E3C701DF91EB
:1013F000CF911F910F91FF90EF90DF90CF90BF9012
:10140000AF900C943F0580E0DF91CF911F910F9139
:10141000FF90EF90DF90CF90BF90AF900895CF9264
:10142000DF92EF92FF920F931F93CF93DF93CDB78D
:10143000DEB7C054D1090FB6F894DEBF0FBECDBFE2
:101440008B019F938F938FE991E09F938F9382E617
:1014500091E09F938F931F9280E48F93CE0101962A
:101460006C019F938F930E943128E0907802F09056
:1014700079020FB6F894DEBF0FBECDBF90E080E0DA
:101480000115110531F0F70160857185C8010E94D1
:1014900026289C01A801B601C7010E94AE09C05CC4
:1014A000DF4F0FB6F894DEBF0FBECDBFDF91CF91F7
:1014B0001F910F91FF90EF90DF90CF900895CF9301
:1014C000DF93EC0187E691E09F938F938091750203
:1014D0001F928F93809177028F93809176028F93E2
:1014E0000E9431280F900F900F900F900F900F9047
:1014F0006091760270917702CE01DF91CF910C94CA
:101500000F0ADC018DE991E08D939D9384E0FB014E
:1015100001900D928A95E1F70895AF92BF92CF9214
:10152000DF92EF92FF920F931F93CF93DF9300D040
:1015300000D0CDB7DEB78C016B017A018091EB034F
:101540008333E9F45B016801C40ED51EC016D106D1
:10155000A9F10E94BE078FE00E94C907812F0E9457
:10156000C907802F0E94C9070F5F1F4F80E00E94AC
:10157000C907F50181935F010E94B407E7CF843367
:1015800069F50E94BE0719830A838F2D8F778B839D
:10159000EC8264E070E0CE0101960E949A07A701F8
:1015A00070E060E0C6010E94CB30E114F10421F04C
:1015B000B701C6010E949A070E94B407C7010F90A5
:1015C0000F900F900F90DF91CF911F910F91FF908F
:1015D000EF90DF90CF90BF90AF9008950E94BE072C
:1015E0000F3F110509F030F419820A831B8263E072
:1015F00070E0D1CF17FD0BC019820A8333E0169536
:1016000007953A95E1F7007E08600B83F0CFC8019B
:1016100026E0969587952A95E1F7807E19830A83BF
:101620000115104C18F480618B83E1CF8861FCCFE9
:10163000CF93DF931F92CDB7DEB720917E0230E0CB
:10164000322F2227260F371F90E0982F882741E05E
:1016500050E0BE016F5F7F4F820F931F0E948D0A83
:1016600089810F90DF91CF910895CF93C82F462F96
:1016700061E070E00E94DC0861E070E08C2F0E9465
:10168000180B8111F9CFCF910895CF93C82F80E522
:1016900091E00E94DD0168E070E08C2FCF910C9406
:1016A000350BCF93C82F80E591E00E94DD0160E10A
:1016B00070E08C2FCF910C94350BCF93DF93EC011E
:1016C000888D843020F40E94510B84E0888FDF9154
:1016D000CF910895CF93C82F80E591E00E94DD015E
:1016E00063E070E08C2FCF910C94180BCF93DF93B5
:1016F000EC018C858430D0F40E946A0B843189F02F
:10170000882379F0883169F021E08C3159F4E8813F
:10171000F9810084F185E02DCE01099521E0892B26
:1017200009F420E0822FDF91CF91089580E0FBCF74
:10173000CF92DF92EF92FF92CF93DF93EC018C85F3
:10174000843068F40E94450B0E94E8026B017C0122
:101750008C850E946A0B811109C084E08C87DF911F
:10176000CF91FF90EF90DF90CF90089561E070E00F
:1017700080E090E00E94B6020E94E802AB01BC014A
:101780004C195D096E097F098D859E85B0E0A0E04A
:10179000481759076A077B07D8F28C850E94510BBE
:1017A000DCCFCF93FC01C08D80E591E00E94DD018C
:1017B00060E270E08C2F0E94350B62E070E08C2FAD
:1017C0000E94180B84FD16C062E070E08C2F0E940E
:1017D000180B83FF0AC048E162E070E08C2F0E9482
:1017E000DC0880E090E0CF91089580E591E00E94D0
:1017F000DD01E3CF40E162E070E08C2F0E94DC0865
:1018000081E0F0CFCF93DF931F92CDB7DEB741E0F9
:1018100050E0BE016F5F7F4F90E080E00E948D0A34
:1018200089810F90DF91CF910895CF93DF93C4E129
:10183000D0E00E94020C882361F061E070E080E05B
:1018400090E00E94B6022197A1F780E0DF91CF914E
:10185000089581E0FBCF1F93CF93DF931F92CDB705
:10186000DEB7182F80E591E00E94DD01812F0E94F4
:10187000930827E0129FF0011124E153FC4F2281CD
:101880003381377041E050E0BE016F5F7F4F820FC0
:10189000931F0E948D0A89810F90DF91CF911F9134
:1018A0000895FC01808D843040F4218D328D232BEE
:1018B00021F00E942B0C90E008958FEF9FEF089588
:1018C000CF93DF93FC012485243028F08FEF9FEF26
:1018D000DF91CF910895EC010190F081E02D00841B
:1018E000F185E02D0995892B89F38C850E942B0CBD
:1018F00090E0EECFDA01E0917E02F0E0FE2FEE27DD
:10190000E60FF71F90E0982F8827A901BD018E0FE1
:101910009F1F0C948D0A8F929F92AF92BF92CF928D
:10192000DF92EF92FF921F93CF93DF93CDB7DEB795
:101930002C970FB6F894DEBF0FBECDBF2091EB03FE
:1019400014E0222339F16B017C0180E591E00E94D3
:10195000DD015E0127E0A20EB11C450110E063E04D
:1019600070E0812F0E94180BF40181934F018823AE
:1019700049F11F5F143099F710E0F50181915F0183
:101980008D31D9F08831C9F08A518230B0F01F5FB3
:10199000143099F7812F2C960FB6F894DEBF0FBE46
:1019A000CDBFDF91CF911F91FF90EF90DF90CF904F
:1019B000BF90AF909F908F90089560E170E0812F6D
:1019C0000E94350BA12EB12C83EE93E00197F1F725
:1019D00042E870E060E0812F0E94DC084FEF62E097
:1019E00070E0812F0E94DC08B601C114D10491F48B
:1019F000809106019091070101968115F0EC9F07F7
:101A000008F45CC090930701809306016091060181
:101A100070910701812F0E94C70886E0E2E1F1E0A2
:101A2000DE01119601900D928A95E1F7F70183810D
:101A30008F778C8384818D8385818E83A7014E5F10
:101A40005F4F24E030E06CE070E0812F0E94A1083D
:101A5000B601812F0E94B20826E030E0AE014F5F50
:101A60005F4F66E070E0812F0E94A10861E070E0A6
:101A7000812F0E94350B27E02A9DC0012B9D900DE0
:101A800011249C0121533C4F7901F90111821082EC
:101A900022E030E0AE01455F5F4F68E270E0812FE9
:101AA0000E947A0C8B859C85982789279827F701B7
:101AB000938382831682158214826CCF80E090EC2F
:101AC000A1CFCF92DF92EF92FF920F931F93CF930C
:101AD000DF9300D000D000D0CDB7DEB78C016B0112
:101AE0007A01FC01808D843010F40E94510B8DE945
:101AF00091E09A838983F60182819381A481B581E3
:101B00008B839C83AD83BE83B701CE0101960E9477
:101B10008B0CF801808F8430A0F4F586E486128E59
:101B2000118E81E026960FB6F894DEBF0FBECDBFB2
:101B3000DF91CF911F910F91FF90EF90DF90CF90A9
:101B4000089580E0EFCFAF92BF92CF92DF92EF92F5
:101B5000FF920F931F93CF93DF9300D000D000D05C
:101B6000CDB7DEB7082F6B0180E591E00E94DD0163
:101B70009E012F5F3F4F7901590110E063E070E053
:101B8000812F0E94180BF50181935F01882341F199
:101B90001F5F143099F710E0F70181917F018D31BB
:101BA000D1F08831C1F08A518230A8F01F5F143023
:101BB00099F7812F26960FB6F894DEBF0FBECDBFE2
:101BC000DF91CF911F910F91FF90EF90DF90CF9019
:101BD000BF90AF90089560E170E0812F0E94350BB7
:101BE000E12EF12C83EE93E00197F1F7402F70E0A6
:101BF00060E0812F0E94DC084FEF62E070E0812FEF
:101C00000E94DC08B601CD2889F4809106019091EC
:101C1000070101968115F0EC9F0798F19093070159
:101C2000809306016091060170910701812F0E9447
:101C3000C70861E070E0812F0E94350B27E02E9DE0
:101C4000C0012F9D900D11249C0121533C4F79011F
:101C5000F9011182108222E030E0AE014B5F5F4F4C
:101C600068E270E0812F0E947A0C8D819E81982716
:101C700089279827F701938382831682158214821D
:101C800098CF80E090ECCACFCF92DF92EF92FF9294
:101C90001F93CF93DF93EC017B016A018C85843025
:101CA00048F40E946A0B882319F08C850E94450B2A
:101CB00084E08C87F70182819381A481B5810097AC
:101CC000A105B10551F490E080E0DF91CF911F9123
:101CD000FF90EF90DF90CF9008958F3F9F4FAF4FD1
:101CE000BF4F89F38091EB03811103C084E08C879F
:101CF000EACF70E060E081E20E94A30D182F8C878C
:101D0000843008F780E591E00E94DD01A7014E5F75
:101D10005F4F24E030E06CE070E0812F0E94A1086A
:101D2000B601812F0E94B20864E070E0812F0E940A
:101D3000350B0E94E8026B017C018C850E946A0BC6
:101D4000873109F18C31F9F0882309F4BCCF0E9466
:101D5000E802AB01BC014C195D096E097F098D8554
:101D60009E85B0E0A0E084179507A607B70738F076
:101D700061E070E080E090E00E94B602DECF8C85EA
:101D80000E94510BB3CF81E090E09FCF0F931F9340
:101D9000CF93DF93EC018B01888D843010F40E9487
:101DA000510B8091EB03811107C094E0988FDF9174
:101DB000CF911F910F910895B80182E00E94A30D69
:101DC000888F843030F41D870C871A8E198E81E03D
:101DD000EECF80E0ECCF7F928F929F92AF92BF9236
:101DE000CF92DF92EF92FF920F931F93CF93DF93E7
:101DF00000D0CDB7DEB7782E8B014A01590122E021
:101E000030E0AE014F5F5F4F64E270E00E947A0CF9
:101E1000E980FA80FE24EF24FE24E00EF11E9701F3
:101E200037704091EB03072D10E0433309F042C0B7
:101E3000085F1F4F102F0027110F110F110FC9013D
:101E4000800F911F4733C9F1A9014A0D5B1D413035
:101E5000584098F160E078E06B01C21AD30AA601FD
:101E6000B4010E94D007A5014C195D09B4016C0DA5
:101E70007D1DC8010E94D007EA0CFB1CF982EA8292
:101E800022E030E0AE014F5F5F4F64E270E0872DEB
:101E90000E94A1080F900F90DF91CF911F910F9199
:101EA000FF90EF90DF90CF90BF90AF909F908F907A
:101EB0007F900895005F1F4FBDCFA501B401DACF19
:101EC000EF92FF921F93CF93DF9300D0CDB7DEB791
:101ED000182F22E030E0AE014F5F5F4F60E270E00C
:101EE0000E947A0CE980FA80FE24EF24FE2422E08E
:101EF00030E0AE014F5F5F4F60E270E0812F0E94E3
:101F00007A0C89819A81982789279827E816F906FB
:101F100089F487E0189FF0011124E153FC4FF5820A
:101F2000E482C7010F900F90DF91CF911F91FF9036
:101F3000EF9008957C01DBCF1F93CF93DF93182F91
:101F400080E591E00E94DD01812F0E94600FEC018D
:101F500063E070E0812F0E94180B873121F08C31F3
:101F600011F0D0E0C0E0CE01DF91CF911F91089534
:101F7000CF93DF93EC018C85843060F40E946A0B70
:101F8000873111F08C3131F48C850E949C0F8115C2
:101F9000984088F3DF91CF910895FC0184858430C7
:101FA00010F40C949C0F90E080E008959F92AF9203
:101FB000BF92CF92DF92EF92FF920F931F93CF9336
:101FC000DF938C015B01942EE52EFC01C688D78837
:101FD000F08C80E591E00E94DD018F2D0E94600F62
:101FE000C92DDE2D8C179D0708F4EC019E01A5017B
:101FF000B6018F2D0E94EB0EF801868997898C0F10
:102000009D1F978B868BCE01DF91CF911F910F91F2
:10201000FF90EF90DF90CF90BF90AF909F9008958A
:102020008F929F92AF92BF92CF92DF92EF92FF92E8
:102030000F931F93CF936C015B018A01FC01C48550
:10204000C430F0F57A014130584018F0E12C88E0B6
:10205000F82E80E591E00E94DD018C2F0E94600F38
:102060004C0163E070E08C2F0E94180B873111F057
:102070008C3149F58E149F0460F380E591E00E9455
:10208000DD019701A50170E060E08C2F0E94EB0E4E
:1020900060E270E08C2F0E94350B62E070E08C2FC4
:1020A0000E94180B84FD17C063E070E08C2F0E9423
:1020B000180B81110BC081E090E0F60193838283BD
:1020C00010E000E010C0F12CE12CD7CF80E591E0CA
:1020D0000E94DD01E2CF40E162E070E08C2F0E94BF
:1020E000DC08EF2841F3C801CF911F910F91FF90B9
:1020F000EF90DF90CF90BF90AF909F908F9008951A
:10210000FF920F931F93CF93DF9300D0CDB7DEB72D
:10211000F82E22E030E0AE014F5F5F4F66E270E0E4
:102120000E947A0C09811A8110270127102722E0CA
:1021300030E0AE014F5F5F4F66E270E08F2D0E948E
:102140007A0C89819A819827892798270817190777
:1021500049F4C8010F900F90DF91CF911F910F911B
:10216000FF9008958C01E3CF1F93CF93DF93182F37
:1021700087E0189FE0011124C153DC4F88819981C9
:10218000009761F480E591E00E94DD01812F0E94BB
:1021900080102E81821B910999838883DF91CF91D2
:1021A0001F910895FC018485843010F40C94B410C0
:1021B00090E080E008954F925F927F928F929F927D
:1021C000AF92BF92CF92DF92EF92FF920F931F9345
:1021D000CF93DF9300D0CDB7DEB7782E6B014A01E5
:1021E000A82EB12C27E0829FC0011124FC01E153ED
:1021F000FC4F7F010081118180E591E00E94DD01AB
:102200000815190554F4872D0E948010F7012681C6
:102210008C01021B1109118300830115110529F599
:1022200063E070E0872D0E94180B843159F08823F9
:1022300049F001E010E08C3111F410E000E011955C
:1022400001951109C8010F900F90DF91CF911F9157
:102250000F91FF90EF90DF90CF90BF90AF909F9045
:102260008F907F905F904F900895801691060CF4A8
:10227000840187E08A9DF0018B9DF00D1124E153CC
:10228000FC4FE280F380C114D10451F12701F7E043
:102290005F22872D0E949308840D951D2091EB03EA
:1022A000273309F453C09801240D351D21303840DF
:1022B00008F44CC020E038E0490184189508A401D6
:1022C000B6010E948D0A2601480C591C6801C818E5
:1022D000D908872D0E949308A601B2010E948D0A99
:1022E000E00EF11E87E08A9DF0018B9DF00D112418
:1022F000E153FC4FF382E28220813181201B310BBC
:10230000318320838681800F912F911D8A3F910513
:1023100010F4232BF1F487E08A9DF0018B9DF00DE2
:102320001124E153FC4F1682F982EA8222E030E068
:10233000AE014F5F5F4F68E270E0872D0E94A108F9
:1023400060E470E0872D0E94350B7CCFA801B601B8
:10235000C5CF868377CFCF93DF93FC01218D328D5C
:102360002115310529F48FEF9FEFDF91CF9108956B
:10237000EC01808D4217530708F0A9010E94DB1081
:102380001816190684F7298D3A8D281B390B3A8FB8
:10239000298FEBCF0F931F93CF93DF931F92CDB76E
:1023A000DEB7FC01218D328D232B41F48FEF9FEF9F
:1023B0000F90DF91CF911F910F9108958C0141E013
:1023C00050E0BE016F5F7F4FFC01808D0E94DB10EB
:1023D000181619065CF7F801818D928D0197928F7E
:1023E000818F898190E0E4CF0F931F93CF93DF9388
:1023F000CDB7DEB728970FB6F894DEBF0FBECDBFBE
:102400008C01D80159964D915C915A97411551050F
:1024100051F0ED91FC91048CF58DE02D70E060E0C1
:10242000C8010995EECFF801808D0E94B410892B68
:10243000B1F148E050E0BE016F5F7F4FD801589680
:102440008C910E94DB1018161906F4F4D8015096EE
:1024500084E0FE01319601900D928A95E1F78D811D
:1024600090E0982F88272E81820F911DF801958B7F
:10247000848B8F81282F30E0322F22278885820F8E
:10248000932F911D928F818F28960FB6F894DEBFFF
:102490000FBECDBFDF91CF911F910F91089590E0B6
:1024A00080E0F2CF4F925F926F927F928F929F92D5
:1024B000AF92BF92CF92DF92EF92FF920F931F9352
:1024C000CF93DF93CDB7DEB763970FB6F894DEBF37
:1024D0000FBECDBF7C016B013A01FB0120E090E013
:1024E00080E06AE03191332309F461C040ED430F8D
:1024F0004A3008F04DC0689FA001699F500D11241B
:10250000CA01C097830F911D37FD9A958F3F9105A2
:1025100049F340F3F70142815381648175818091D1
:10252000BB049091BC04A091BD04B091BE044817B7
:1025300059076A077B0709F40DC28701085F1F4F1F
:102540000E94E8026F7077277C5FC8010E94C60E68
:10255000813009F004C28DE991E09A838983F70103
:1025600082819381A481B5818B839C83AD83BE835B
:1025700045E350E0BE016F5F7F4FC8010E943909FB
:10258000892BA9F5D12CC12CC8010E945D0B17C065
:102590003E3209F0BFCF233009F4BCCFD301A20FE4
:1025A000B11D12968C932F5F90E080E09BCF23307B
:1025B00009F0B0CFF3018583CC24C394D12CC6019C
:1025C00063960FB6F894DEBF0FBECDBFDF91CF91FB
:1025D0001F910F91FF90EF90DF90CF90BF90AF9041
:1025E0009F908F907F906F905F904F9008950E9482
:1025F000E802F7017783668342E050E0B7016A5F43
:102600007F4FC8010E94D60F81E090E09A838983B2
:1026100042E050E0BE016F5F7F4FC8010E94D60FBD
:1026200080E091E09A83898342E050E0BE016F5FD1
:102630007F4FC8010E94D60F1A82198242E050E0F3
:10264000BE016F5F7F4FC8010E94D60F42E050E08D
:10265000BE016F5F7F4FC8010E94D60F42E050E07D
:10266000BE016F5F7F4FC8010E94D60F5601F60171
:102670008081882301F16501F60181912F01882372
:1026800011F08E32B1F446018A189B08181419040F
:1026900074F48D8641E050E0BE01635F7F4FC80156
:1026A0000E94D60FA401B501C8010E94D60F5201A5
:1026B000DECF6201E1CF1D8641E050E0BE01635FE5
:1026C0007F4FC8010E94D60FC12CDD24D394DA823B
:1026D000C98242E050E0BE016F5F7F4FC8010E9497
:1026E000D60FDA82C98242E050E0BE016F5F7F4FB1
:1026F000C8010E94D60FC8010E94D10B892B09F492
:1027000041CFF3E0AF2EB12C230122E0420E511C49
:10271000D4C0F7014281538164817581808D918D90
:10272000A28DB38D481759076A077B0709F008C1C6
:10273000848D958DC59709F003C181A192A15DEFAC
:10274000C52EDD24DA940C970CF4ADC04CE050E0BB
:10275000BE016F5F7F4FC8010E94AB118B819C81CE
:102760009827892798279A8B898BF701468157816B
:1027700029813A814217530709F0E7C097FFE5C066
:102780008F7092703BEFC32EDD24DA94892B09F011
:102790008AC06F8078847624672476242AEFC22E3C
:1027A000DD24DA946114710409F47DC0D12CC12CAC
:1027B0008D819E81982789279827C816D906F8F415
:1027C00041E050E0BE01635F7F4FC8010E94AB1142
:1027D0004D85442331F050E070E060E0C8010E9474
:1027E000AB118D858111ECCF44E050E070E060E0EA
:1027F000C8010E94AB11FFEFCF1ADF0AD9CF912C8D
:10280000812C41E050E0BE016D5E7F4FC8010E9407
:10281000AB114B89842F807C09F06CC0442331F0CC
:1028200050E070E060E0C8010E94AB118B8981111B
:10283000E8CF42E050E0BE01615F7F4FC8010E94D7
:10284000AB1142E050E0BE01635F7F4FC8010E94C0
:10285000AB1144E050E070E060E0C8010E94AB11B1
:1028600042E050E0BE016F5E7F4FC8010E94AB1195
:102870008F85988949895A898115914009F043C00B
:10288000CD84DE84DC24CD24DC2481E0C816D10490
:10289000D1F54115544009F04AC044E050E0B2017E
:1028A000C8010E94AB1121E0A21AB10809F46CCE54
:1028B000FFEFCF16DF0609F067CE0E94E8023B016A
:1028C0004C01C8010E94F411181619060CF421CF0E
:1028D0000E94E802661977098809990969387341E5
:1028E0008105910548F562E370E080E090E00E9488
:1028F000B602E7CF41E050E070E060E0C8010E941E
:10290000AB111B8A93CF54274527542770E060E012
:10291000C8010E94AB11FFEF8F1A9F0A6814790457
:1029200009F06FCF96EFC92EDD24DA94BCCFE7EF24
:10293000CE2EDD24DA94B7CFCC24CA94DC2CB3CFCE
:102940006EEFC62EDD24DA94AECF4CEFC42EDD241C
:10295000DA94A9CF8EEFC82EDD24DA9430CED12CB4
:10296000C12C2DCECF92DF92EF92FF920F931F9347
:10297000CF93DF93CDB7DEB7AF970FB6F894DEBF36
:102980000FBECDBF7C016A010DE911E01A830983F6
:102990001C861B8688EE93E0A0E0B0E08D879E87C2
:1029A000AF87B88B83E291E09A878987188F0F8B66
:1029B000198E1A8E1B8E1C8E84E089A31BA70AA772
:1029C0001CA61DA61EA61FA68091AF049091B00460
:1029D000A091B104B091B2048EA39FA3A8A7B9A7F8
:1029E0008B839C83AD83BE8318861F82AE01465DB8
:1029F0005F4FCE0101960E94521281309105B1F4D1
:102A0000D701ED91FC910488F589E02D1DA30CA35D
:102A10008CA59DA5AEA5BFA58EA39FA3A8A7B9A76A
:102A2000A601BE016C5D7F4FC7010995AF960FB639
:102A3000F894DEBF0FBECDBFDF91CF911F910F91F4
:102A4000FF90EF90DF90CF900895CF92DF92EF92BA
:102A5000FF920F931F93CF93DF93CDB7DEB7AF975E
:102A60000FB6F894DEBF0FBECDBF8C016B017A01AB
:102A70008DE991E09A8389831B821C821D821E82CC
:102A80001C861B8648EE53E060E070E04D875E8751
:102A90006F87788B23E231E03A872987988F8F8B75
:102AA000198E1A8E1B8E1C8E24E029A39BA78AA741
:102AB0001CA61DA61EA61FA6D8011C968C918430AC
:102AC00060F40E946A0B882321F0F80184850E943B
:102AD000450B84E0D8011C968C938091AF049091B3
:102AE000B004A091B104B091B2048EA39FA3A8A793
:102AF000B9A78B839C83AD83BE8318861F82AE01EA
:102B0000465D5F4FB601CE0101960E9452120097BA
:102B1000C1F0D801ED91FC910684F785E02D8DE997
:102B200091E09DA38CA38CA59DA5AEA5BFA58EA36A
:102B30009FA3A8A7B9A7A701BE016C5D7F4FC801DD
:102B40000995AF960FB6F894DEBF0FBECDBFDF91EB
:102B5000CF911F910F91FF90EF90DF90CF9008954C
:102B6000CF93DF931F92CDB7DEB741E050E0BE01B7
:102B70006F5F7F4FFC0184850E94DB1018161906D9
:102B800034F4898190E00F90DF91CF9108958FEF19
:102B90009FEFF9CFFC018485843010F40C94DB1096
:102BA00090E080E008950F931F93CF93DF9300D0C0
:102BB000CDB7DEB7FC0124852430E0F48C0180E53C
:102BC00091E00E94DD0122E030E0AE014F5F5F4FF7
:102BD00060E170E0F80184850E947A0C89819A8115
:102BE0009827892798270F900F90DF91CF911F91F9
:102BF0000F91089590E080E0F6CFEF92FF920F934F
:102C00001F93CF93DF9300D000D0CDB7DEB78C01F8
:102C10007B01FB0184858430A8F08DE991E0F80107
:102C2000918380831282138214821582C8010F90CF
:102C30000F900F900F90DF91CF911F910F91FF9008
:102C4000EF90089580E591E00E94DD0124E030E0FE
:102C5000AE014F5F5F4F6CE070E0F70184850E942A
:102C60007A0CBE016F5F7F4FC8010E94810ADECFE0
:102C70000F931F93CF93DF9300D0CDB7DEB7FC0146
:102C800024852430E0F48C0180E591E00E94DD0190
:102C900022E030E0AE014F5F5F4F64E070E0F8018A
:102CA00084850E947A0C89819A81982789279827A0
:102CB0000F900F90DF91CF911F910F91089590E0A9
:102CC00080E0F6CFFB0101900020E9F73197AF01DA
:102CD000461B570BDC01ED91FC910280F381E02D46
:102CE00009948F929F92AF92BF92EF92FF920F93AF
:102CF0001F93CF93DF93CDB7DEB7A1970FB6F894AC
:102D0000DEBF0FBECDBF7C01FA01CB0119A222307C
:102D100008F42AE08E010F5D1F4F822E912CB12CFA
:102D2000A12CBF01A50194010E94742DF901CA01D3
:102D30006A300CF5605DD8016E938D01232B242B36
:102D4000252B79F790E080E0109721F0BD01C701B5
:102D50000E946216A1960FB6F894DEBF0FBECDBFDB
:102D6000DF91CF911F910F91FF90EF90BF90AF90A7
:102D70009F908F900895695CDECF8F929F92AF9263
:102D8000BF92CF92DF92EF92FF920F931F93CF9358
:102D9000DF937C01EB016C0182E0C80ED11C47017E
:102DA000E5E08E0E911C10E000E0F60141916F010C
:102DB00050E070E060E02AE0CE010E9471165C01F4
:102DC000E881F9810190F081E02D6EE2CE01099554
:102DD0008A0D9B1D080F191FC814D90431F7F7017C
:102DE000458150E070E060E02AE0CE010E9471165B
:102DF000800F911FDF91CF911F910F91FF90EF9066
:102E0000DF90CF90BF90AF909F908F900895CF921A
:102E1000DF92EF92FF920F931F93CF93DF93CDB783
:102E2000DEB728970FB6F894DEBF0FBECDBF009176
:102E3000BB031091BC03C8010E940A05811112C195
:102E4000D80114968D919C91DC01ED91FC9106883E
:102E5000F789E02D0995882309F450C081E090E0BE
:102E6000F8019787868787E0E8E1F1E0DE011196B7
:102E700001900D928A95E1F7FE01319685E090E090
:102E80002191D80116964D915C91DA01A80FB91FD6
:102E90002C9301968C30910599F7D8011696ED91F7
:102EA000FC91179782E884871696ED91FC9117970D
:102EB0001B968C911B9785871696ED91FC91179721
:102EC0001A968C911A9786871896ED90FC90B70108
:102ED0008BEB91E00E9426284196F801E816F9064E
:102EE00008F041C084819581DC01ED91FC9104885A
:102EF000F589E02D09956DEE71E0B6C0D801919687
:102F00006D917C91929714968D919C91DC01ED913D
:102F1000FC91D80193964D915C9194976115710540
:102F200069F00088F189E02D0995019709F496CFA1
:102F30008EEF9FEFF80190A787A3DDCF0684F7857A
:102F4000E02D2DE931E03A8329835D96CD90DD9027
:102F5000ED90FC909097CB82DC82ED82FE82BE01E8
:102F60006F5F7F4FE1CF668177814FE050E08BEB61
:102F700091E00E94BB017C01D8011896CD90DC90B5
:102F8000B6018BEC91E00E9426288E0D9F1D0296C3
:102F9000F801C816D90608F4A5CF66817781A70184
:102FA0008BEC91E00E94BB019C0125503109D801B6
:102FB00016964D915C9160E1C8010E943F050E9408
:102FC000E802F801608B718B828B938B648B758B1D
:102FD000868B978BF80184819581DC01ED91FC91C2
:102FE0000084F185E02D0995892BF9F40E94E8020F
:102FF000F801C488D588E688F7889B01AC012C19B4
:103000003D094E095F0969017A0124853585A8EEDD
:10301000B3E00E94962DC616D706E806F906D0F250
:103020008CEF9FEF90A787A35DCFBE01685F7F4FB6
:10303000C8010E942806643071058105910591F54B
:10304000D8011696ED91FC9117978381811125C0C7
:103050000E94E802F801648B758B868B978B108E2B
:1030600010A617A260EE71E08CEE93E00E9462164B
:103070006AEE71E08CEE93E00E94621628960FB61D
:10308000F894DEBF0FBECDBFDF91CF911F910F919E
:10309000FF90EF90DF90CF90089590E098969C93EA
:1030A0008E939797F8011ECF3F924F925F926F9247
:1030B0007F928F929F92AF92BF92CF92DF92EF92C8
:1030C000FF920F931F93CF93DF93CDB7DEB7EA97AD
:1030D0000FB6F894DEBF0FBECDBF7C012A013B01C5
:1030E00069010E94E8024B015C0187010D5B1F4FE3
:1030F000C8010E94F411181619069CF00E94E802FB
:10310000681979098A099B094616570668067906DF
:1031100008F466C162E370E080E090E00E94B602CD
:10312000E7CF42E250E0BE016F5F7F4FC8010E94CF
:10313000AB1189818230D1F0312C832DEA960FB604
:10314000F894DEBF0FBECDBFDF91CF911F910F91DD
:10315000FF90EF90DF90CF90BF90AF909F908F90B7
:103160007F906F905F904F903F900895F801848911
:1031700095898334910501F76D817E818F819885D2
:103180000E94712F4B015C01F60180829182A28224
:10319000B38246E050E0B701685F7F4FCE014D96A5
:1031A0000E94A330892B41F6F70180819181A28191
:1031B000B38188169906AA06BB0608F4BDCF8481A0
:1031C0009581A681B78188159905AA05BB0508F4E4
:1031D000B3CF89899A89AB89BC8986879787A08B69
:1031E000B18B4EEC50E070E060E0C8010E94AB1182
:1031F000312CC701829698AB8FA7F701B696FAAB30
:10320000E9AB08969CAB8BAB67019AE1C90ED11C68
:10321000BD96FEABEDABC701429698AF8FABFD9765
:10322000FAAFE9AF4701FEE18F0E911CF801818DE5
:10323000928D181619060CF080CFC8010E94CA1191
:103240008333910509F4B2C014F58130910509F476
:1032500064C044F4892B51F3C8010E94CA11AC0127
:10326000552775C08330910509F462C00697A1F710
:10327000C8010E94CA11B82E44E050E0B401C80150
:103280000E94AB11EB2DE450FF0BAF0160C08A33FD
:10329000910509F45FC084F585339105B1F1C697B6
:1032A000D9F6C8010E94CA115C01B601CE01899607
:1032B0000E94810A8BA59CA5ADA5BEA5892B8A2B52
:1032C0008B2BB1F0EDA9FEA9408051806280738004
:1032D000B601CE0183960E94810A8DA19EA1AFA165
:1032E000B8A5A501481659066A067B0609F0B8CFAD
:1032F00044E050E0B60118C08B33910509F440C09A
:103300008F3F910509F492CFA7CFC8010E94CA113F
:10331000C8010E94CA11382E89CFC8010E94CA1163
:1033200044E050E06FA978ADC8010E94AB117ECF98
:10333000C8010E94CA11B82E44E050E069AD7AADD0
:10334000C8010E94AB118B2D8450990BAC0170E029
:1033500060E0EACFC8010E94CA1144E050E069A9C8
:103360007AA9C8010E94AB11F70166A177A180A5D7
:1033700091A50E94712F66A377A380A791A756CF2E
:10338000C8010E94CA1144E050E06BA97CA9C801A1
:103390000E94AB11F70162A573A584A595A50E94B3
:1033A000712F62A773A784A795A740CFC8010E9479
:1033B000CA1144E050E06FA578A9C8010E94AB1182
:1033C000F70162A173A184A195A10E94712F62A34C
:1033D00073A384A395A366A777A780AB91AB26CFF1
:1033E00033243A94AACE7F928F929F92AF92BF924B
:1033F000CF92DF92EF92FF920F931F93CF93DF93C1
:10340000CDB7DEB7A6970FB6F894DEBF0FBECDBF1F
:103410008C01762E942E852E20E2A22ECE010196CE
:103420007C01DC01EA2D1D92EA95E9F76801F3E4DD
:10343000CF0ED11C8DE991E09AA389A38FEF8BA3C6
:103440008CA38DA38EA343E450E0BE016F5D7F4F3C
:10345000C6010E943909019609F4BFC081E0898341
:103460008A8386E0B82EBB821C82D80114966D91A7
:103470007D918D919C9117970E94712F6D837E8312
:103480008F83988789869A8680E890E09C878B87CF
:103490004CE150E0B701C6010E94D60FFE013796FD
:1034A0008AE1DF011D928A95E9F74801B8E08B0EA9
:1034B000911CF401D70101900D92BA94E1F740E11B
:1034C00050E0B701C6010E94D60FF7011192AA94ED
:1034D000E9F796E0A92EB12C40E250E0B701C60111
:1034E0000E94D60FF1E0AF1AB108B1F783E68983E5
:1034F00092E89A8393E59B838C8385E38D8381E0B7
:103500008E837F829DE3988797E099878A8786E0FC
:10351000F401DE011B9601900D928A95E1F78CE093
:10352000898B8A8B69EF71E0CE0143960E94DD3072
:10353000D8011B966C91CE0149960E94E001F801DA
:103540006485CE014B960E94E001D8011D966C91D6
:10355000CE014D960E94E0014EE150E0B701C60158
:103560000E94D60FB3E07B121EC082E3898384E001
:103570008A83F80196859B8397859C8390899D8398
:1035800091899E8396E39F838887828D8987838D27
:103590008A87848D8B87858D8C874CE050E0B701BE
:1035A000C6010E94D60F87E3898386E08A8391E073
:1035B0009B8393E09C838D838FE08E838AE38F834C
:1035C0008BE388878FEF898749E050E0B701C60118
:1035D0000E94D60FC6010E94D10BA6960FB6F89492
:1035E000DEBF0FBECDBFDF91CF911F910F91FF9036
:1035F000EF90DF90CF90BF90AF909F908F907F9093
:1036000008952F923F924F925F926F927F928F9286
:103610009F92AF92BF92CF92DF92EF92FF920F9361
:103620001F93CF93DF9300D000D000D0CDB7DEB78B
:103630008C010E94C0272FEC37E040E050E00E9450
:103640000B2DDC01CB010196A11DB11DF801848376
:103650009583A683B78380839183A283B383580124
:10366000F3E4AF0EB11CC5010E945D0B64E470E091
:10367000C5010E94C60E882309F445C10E94E802D4
:103680002B013C01480182E4880E911C48EEC42EB7
:1036900043E0D42EE12CF12C52E0252E1E821D8217
:1036A000D4018C918330B1F1811166C0F80184811D
:1036B0009581A681B7810196A11DB11D8483958353
:1036C000A683B7830E94E8026419750986099709E1
:1036D000A70196010E94742DA90161E0C8010E9412
:1036E000F31981E0D4018C938D819E810197C1F201
:1036F0000E94E8026419750986099709D801D696CF
:103700002D913D914D915C91D99726173707480728
:10371000590720F6C5010E945D0BF801848195814F
:10372000A681B7810196A11DB11D84839583A683CF
:10373000B7830E94E802F801FE966083718382835A
:1037400093838D819E8126960FB6F894DEBF0FBEBF
:10375000CDBFDF91CF911F910F91FF90EF90DF9040
:10376000CF90BF90AF909F908F907F906F905F9021
:103770004F903F902F9008958430F1F4F8018481A8
:103780009581A681B7810196A11DB11D8483958382
:10379000A683B7830E94E802641975098609970910
:1037A000A70196010E94742DA90163E0C8010E943F
:1037B000F319D4012C9298CF813051F5F80142AD24
:1037C00053AD64AD75AD9E012F5F3F4FC8010E94A0
:1037D0005418382EF2E08F1390C089819A81AB8102
:1037E000BC81F80184839583A683B7830E94E80295
:1037F0006419750986099709A70196010E94742D1D
:10380000A90163E0C8010E94F319D4013C926CCF76
:10381000823009F069CFF80142AD53AD64AD75ADAA
:103820009E012F5F3F4FC8010E945418382EF5E0CB
:103830008F135DC0E3E0D401EC93F80182A193A162
:10384000A4A1B5A1892B8A2B8B2B41F484E893E0AA
:10385000A0E0B0E082A393A3A4A3B5A3F80186A13E
:1038600097A1A0A5B1A5892B8A2B8B2B61F482A1EE
:1038700093A1A4A1B5A1B695A7959795879586A381
:1038800097A3A0A7B1A7F80182A593A5A4A5B5A564
:10389000892B8A2B8B2BA9F482A193A1A4A1B5A17A
:1038A000AC01BD0123E076956795579547952A951C
:1038B000D1F7841B950BA60BB70B82A793A7A4A7E0
:1038C000B5A7F80186A197A1A0A5B1A586A797A73E
:1038D000A0ABB1AB82A593A5A4A5B5A582AB93ABD4
:1038E000A4ABB5AB81E090E09E838D83FDCE96E0E6
:1038F000891303C0D4011C92F7CEBFEF3B12F4CE64
:10390000F4011082F1CE1E821D821BCFBF92CF9296
:10391000DF92EF92FF920F931F93CF93DF93CDB778
:10392000DEB72C970FB6F894DEBF0FBECDBF6C018B
:103930007A018091780290917902892B99F1B09067
:1039400075028B2D90E04817590720F07C0121E08B
:10395000E21AF1080091760210917702A701C801DE
:103960000E94B030F801EE0DFF1D10826FE270E092
:10397000C6010E94F330009729F1BC016F5F7F4FB1
:103980004BE050E0CE0101960E94E4301C8663E1DA
:1039900072E0C8010E94FE300097B1F4CE0101969A
:1039A0000E945F0A2C960FB6F894DEBF0FBECDBF03
:1039B000DF91CF911F910F91FF90EF90DF90CF900B
:1039C000BF9008951982E2CF7C012AE0E20EF11C3B
:1039D00062E270E0C7010E94D230892BF9F26EE1F9
:1039E00072E0C8010E94FE306C01892B19F089E059
:1039F000C80ED11C48E050E066ED71E0C7010E949E
:103A00001828892BB9F5C114D10481F168E272E05C
:103A1000C6010E94FE30892B49F181E08093740237
:103A2000FF24F3946F2D84E00E94200289E092E04D
:103A3000FF2011F080E092E09F938F9384E891E063
:103A40009F938F931F92BF921F930F930E943128D1
:103A50006091760270917702CE0101960E940F0A62
:103A60000FB6F894DEBF0FBECDBF9CCF109274028C
:103A7000F12CD8CF49E050E06CEC71E0C7010E9416
:103A80001828892B09F08ACF0E94E80228EE33E03B
:103A900040E050E00E94742D5F934F933F932F932B
:103AA000809174021F928F9383EA91E09F938F938A
:103AB0001F92BF921F930F930E943128C9CF0C947D
:103AC0001A302F923F924F925F926F927F928F9215
:103AD0009F92AF92BF92CF92DF92EF92FF920F939D
:103AE0001F93CF93DF9300D000D000D01F92CDB7AB
:103AF000DEB700918002109181020115110509F4D1
:103B0000D0C00E94E8024B015C0178012EE3E20E76
:103B1000F11CF70180819181A281B381A5019401FB
:103B2000281B390B4A0B5B0BCA01B901683E33E015
:103B3000730781059105A0F128EE33E040E050E0E5
:103B40000E94742D861A970AA80AB90AD7018D9285
:103B50009D92AD92BC921397F80186A597A5A0A956
:103B6000B1A969017A01CC0CDD1CEE1CFF1C8C157F
:103B70009D05AE05BF0508F004C116A617A610AA3C
:103B800011AAF80182A993A9A4A9B5A98C159D052C
:103B9000AE05BF0508F0FEC012AA13AA14AA15AA02
:103BA000F80186A597A5A0A9B1A9892B8A2B8B2BF3
:103BB00009F0F9C0EE5BFF4F8081833009F0F3C05C
:103BC00084E08083C8010E94011B0196D801D2962F
:103BD0004D915D916D917C91D597452B462B472B4F
:103BE000A1F4F801EE5BFF4F2081233011F0211189
:103BF0000CC01082F8013E9684E1DF011D928A9587
:103C0000E9F7C8010E94011B03968230910519F063
:103C1000049709F046C080E591E00E94DD01009123
:103C2000800210918102B801625F7F4FCE01019640
:103C30000E94810ACE0103960E943109B8016A5E92
:103C40007F4FCE0101960E94810A44E050E0BE0100
:103C50006D5F7F4F81E090E00E94D007B8016E5EFB
:103C60007F4FCE0101960E94810A44E050E0BE01E0
:103C70006D5F7F4F85E090E00E94D007B801625EE3
:103C80007F4FCE0101960E94810A8B819C81AD817C
:103C9000BE818093AF049093B004A093B104B0931D
:103CA000B2048091BB039091BC030E940A05882353
:103CB00009F489C10091BB031091BC03C8010E94A3
:103CC0000A05882309F444C00E94E8024B015C0104
:103CD000F80122853385A8EEB3E00E94962DC488B2
:103CE000D588E688F788A50194012C193D094E096D
:103CF0005F0969017A016C157D058E059F0590F0BD
:103D0000C088D188E288F388A50194012C193D0967
:103D10004E095F0969017A016C157D058E059F05C5
:103D200008F06AC0D80158968C9158978823F1F111
:103D30008CEF9FEF98969C938E93979714968D9106
:103D40009C91DC01ED91FC910488F589E02D0995A9
:103D500027960FB6F894DEBF0FBECDBFDF91CF918F
:103D60001F910F91FF90EF90DF90CF90BF90AF9099
:103D70009F908F907F906F905F904F903F902F908B
:103D80000895821B930BA40BB50B86A797A7A0AB36
:103D9000B1ABF7CE821B930BA40BB50B82AB93ABED
:103DA000A4ABB5ABFDCE90E080E010CF1696ED91C0
:103DB000FC91179780EC80831696ED91FC911797F4
:103DC000118214968D919C91159716966D917C9108
:103DD000DC01ED91FC910280F381E02D42E050E0A6
:103DE0000995F801808A918AA28AB38A848A958A81
:103DF000A68AB78A81E0808FF80184819581DC01F1
:103E0000ED91FC910084F185E02D0995892B09F451
:103E10009FCFBE016F5F7F4FC8010E9428062B0114
:103E2000672B09F4CCC0F801848A958AA68AB78AE0
:103E30000680F781E02D8081807F803309F09EC06D
:103E4000D80159968D919C91892B09F481CF498194
:103E500050E0CA0102968E0F9F1FDF01A40FB51F0D
:103E60001196EC90F12CFE2CEE24DC016C91E60E08
:103E7000F11C4D5F5F4FBF01640F751FA7010E94CA
:103E8000B930E981D80116968D919C9117978E0DC6
:103E90009F1DE80FF92FF11D12821696ED91FC91EE
:103EA0001797298130E0C90102968E0F9F1F40812C
:103EB00046704F835996CD90DC90423009F04CC04B
:103EC000B701620F731FDF01A60FB71F13964C9146
:103ED000139750E0542F442714962C90240E352E1F
:103EE000311C4BEF5FEF421B530B4E195F09440D22
:103EF000551D6B5F7F4F6E0F7F1FF6010995D8012F
:103F00001696ED91FC91179780E480831696ED91BB
:103F1000FC911797CF80C1821696ED91FC9117976F
:103F200032821696ED91FC911797238214968D910B
:103F30009C91159716966D917C91DC01ED91FC9109
:103F40000280F381E02D44E050E00995F801808A79
:103F5000918AA28AB38AFCCE4DEF5FEF421B530BCE
:103F60004E195F09440D551D2D5F3F4FE20EF31EA4
:103F7000BF016E0D7F1DF6010995EACE803CC9F4A4
:103F800080ED8083D8011696ED91FC9117971182F0
:103F900014968D919C91159716966D917C91DC01EC
:103FA000ED91FC910280F381E02D42E050E0099513
:103FB000CFCE803D09F0CCCEF801108EC9CEC8011D
:103FC0000E940A05C5CE0E94E8020091700210917D
:103FD000710220917202309173026B017C01C01A50
:103FE000D10AE20AF30A9701860108381341210534
:103FF000310508F4ADCE6093700270937102809326
:104000007202909373020E940717A2CE1F920F9222
:104010000FB60F9211242F933F938F939F93AF93DB
:10402000BF938091C7039091C803A091C903B09139
:10403000CA033091C60323E0230F2D3758F50196AC
:10404000A11DB11D2093C6038093C7039093C8039D
:10405000A093C903B093CA038091CB039091CC0382
:10406000A091CD03B091CE030196A11DB11D809307
:10407000CB039093CC03A093CD03B093CE03BF9119
:10408000AF919F918F913F912F910F900FBE0F9005
:104090001F90189526E8230F0296A11DB11DD2CFBF
:1040A0001F920F920FB60F9211242F933F934F93AD
:1040B0005F936F937F938F939F93AF93BF93EF9390
:1040C000FF938CEE93E00E947B04FF91EF91BF91F0
:1040D000AF919F918F917F916F915F914F913F91A0
:1040E0002F910F900FBE0F901F9018951F920F9257
:1040F0000FB60F9211242F938F939F93EF93FF93FB
:10410000E091FC03F091FD038081E0910204F091C5
:10411000030482FD1BC09081809105048F5F8F7323
:1041200020910604821741F0E0910504F0E0E4518B
:10413000FC4F958F80930504FF91EF919F918F9194
:104140002F910F900FBE0F901F9018958081F4CF84
:104150000F931F93CF93DF93ECEEF3E01382128261
:1041600088EE93E0A0E0B0E084839583A683B783D4
:104170002DE431E03183208325EC30E0358724873E
:1041800024EC30E03787268720EC30E0318B208B21
:1041900021EC30E0338B228B22EC30E0358B248B0A
:1041A00026EC30E0378B268B118E128E138E148EF8
:1041B000E9E8F4E0CDE9D1E0D183C0831282138233
:1041C00014821582EFE8F4E0D183C0831282138257
:1041D00014821582E5E9F4E0D183C0831282138250
:1041E00014821582EBE9F4E0D183C083128213823A
:1041F00014821582E1EAF4E0D183C0831282138233
:1042000014821582E7EAF4E0D183C083128213821C
:1042100014821582E3EBF4E0D183C083128213820F
:1042200014821582EDEAF4E0D183C08312821382F6
:1042300014821582E9EBF4E0D183C08312821382E9
:1042400014821582EFEBF4E0D183C08312821382D3
:1042500014821582E5ECF4E0D183C08312821382CC
:1042600014821582EBECF4E0D183C08312821382B6
:1042700014821582E9E0F5E0D183C08312821382B3
:1042800014821582EAEFF4E013821282848395830C
:10429000A683B7838BE691E09183808384E0848753
:1042A00088EE93E09687858701ED14E0D801139698
:1042B0001C921E9212978FE591E011969C938E931B
:1042C0005C96DC93CE935B975D961D921D921D923A
:1042D0001C9290978FEF9FEF98969C938E93979751
:1042E0001596FC93EE93149796961C921E929597B2
:1042F00080E091E00E947E2FF8019783868380E022
:1043000091E0918780878FE090E0938782879587FF
:104310008487EFE0F5E0D183C08312821382148298
:104320001582A5E1B5E082E015968C93159786E19C
:1043300016968C931697EBE9F2E0E4911796EC93BE
:104340001797E7E8F2E0E4911896EC93189740E8A5
:104350005EE360E070E01D964D935D936D937C93FA
:104360005097DF91CF911F910F910895CF93DF93D5
:10437000CDB7DEB7AA970FB6F894DEBF0FBECDBF9C
:10438000789484B5826084BD84B5816084BD85B530
:10439000826085BD85B5816085BD80916E0081603C
:1043A00080936E00109281008091810082608093E2
:1043B00081008091810081608093810080918000E4
:1043C0008160809380008091B10084608093B1000F
:1043D0008091B00081608093B00080917A00846009
:1043E00080937A0080917A00826080937A00809135
:1043F0007A00816080937A0080917A00806880934F
:104400007A001092C100E091FC03F091FD0382E07C
:104410008083E091F803F091F9031082E091FA03B0
:10442000F091FB038FEC808310920404E091000470
:10443000F091010486E08083E091FE03F091FF0398
:10444000808180618083E091FE03F091FF03808191
:1044500088608083E091FE03F091FF038081806893
:104460008083E091FE03F091FF0380818F7D808344
:104470006DE272E08CEE93E00E94621662E083E0EF
:104480000E944E0262E080911A050E944E020E9434
:10449000E802605D77408109910960931E05709381
:1044A0001F05809320059093210587E380932705BE
:1044B00061E085E00E944E0261E086E00E944E02CB
:1044C00061E087E00E944E0261E084E00E944E02BB
:1044D00061E087E00E94200248EE52E05093B90369
:1044E0004093B80328EC2093BA0381ED94E09093B5
:1044F000790280937802509377024093760220935A
:10450000750226E83CE13093EB042093EA04909393
:10451000BC038093BB038091E00281112AC01092FA
:10452000C8021092C70288EE93E0A0E0B0E080934A
:10453000C9029093CA02A093CB02B093CC0283E24B
:1045400091E09093C6028093C5028DE991E090932B
:10455000D4028093D3021092D5021092D602109208
:10456000D7021092D80284E08093DD0281E080932C
:10457000E00282E892E09093810280938002809131
:104580007F028111ADC060E372E080E090E00E94A4
:10459000B602DFB6F8940FE812E083EAE82E82E074
:1045A000F82E80917D02811125C0F8018491F701D8
:1045B0009491E82FF0E0EE0FFF1FED5AFD4FA5910B
:1045C000B4918C91982321F461E08AE00E9420024A
:1045D00061E08AE00E944E028CB580618CBD8CB592
:1045E00080648CBD61E08DE00E944E0261E08BE052
:1045F0000E944E0280917D028F5F80937D02DFBE1C
:10460000F8010491E02FF0E0EE0FFF1FE35AFD4F99
:104610008591949190937C0280937B02F701E490C2
:10462000E0927A0261E08AE00E944E020E94B407A2
:1046300080E591E00E94DD0184E38093EB0380E854
:104640000E9480080E94150C882309F4F5C088E0B8
:104650000E9480080E94020C883009F0EDC080E1C1
:104660000E9480080E94020C803109F0E5C080E0C1
:104670000E9480080E94020C182F8111DDC041E0C9
:1046800050E0BE016F5F7F4F8FE190E00E948D0A86
:104690008981833009F0D0C080E480937E0242E0BB
:1046A0006EE170E0812F0E94DC0842E06FE170E073
:1046B000812F0E94DC081F5F143089F740E06EE113
:1046C00070E0812F0E94DC0840E06FE170E0812FF4
:1046D0000E94DC081F5F183089F781E080937F0219
:1046E00080E591E00E94DD0146E050E060E071E08D
:1046F00089E090E00E94D0078DE991E09A83898358
:104700001B821C821D821E82CE0103960E943109EB
:104710008091800290918102DC0192961D921D92FF
:104720001D921C929597FC0116A217A210A611A625
:104730009A961D921D921D921C929D9740E65AEEEC
:1047400060E070E046AB57AB60AF71AF40EA5FE04E
:1047500060E070E0DA964D935D936D937C93DD9706
:104760003E9624E1DF011D922A95E9F726E0E0E07C
:10477000F1E0DC01189601900D922A95E1F7FC0119
:10478000EE5BFF4F10820E94011B019709F0BDC034
:1047900080E591E00E94DD0100918002109181028C
:1047A000B801625F7F4FCE0101960E94810ACE015F
:1047B00003960E943109B8016A5E7F4FCE010196CF
:1047C0000E94810A44E050E0BE016D5F7F4F81E0AE
:1047D00090E00E94D007B8016E5E7F4FCE01019637
:1047E0000E94810A44E050E0BE016D5F7F4F85E08A
:1047F00090E00E94D007B801625E7F4FCE01019623
:104800000E94810A8B819C81AD81BE818093AF041F
:104810009093B004A093B104B093B2040E949102AB
:104820007F73809106019091070168277927709323
:1048300007016093060169C087E38093EB0380E87A
:104840000E9480080E94150C882329F188E00E94AC
:1048500080080E94020C8830F1F480E10E948008F8
:104860000E94020C182F8031B1F480E00E94800871
:104870000E94020C81110FC041E050E0BE016F5F49
:104880007F4F89E390E00E948D0A8981843019F47A
:1048900010937E0222CF83E38093EB0380E80E9493
:1048A00080080E94150C882371F180E10E94800825
:1048B0000E94020C803139F582E10E9480080E943A
:1048C000020C823101F580E00E9480080E94020CF7
:1048D000811119C084E080937E0215E51A8F41E0B2
:1048E00050E0BE01665E7F4F8BE190E00E94D007F2
:1048F000198F41E050E0BE01675E7F4F8AE190E092
:104900000E94D007EACE1092EB0360ED77E080E0E2
:1049100090E00E94B602E091BB03F091BC0380E4FA
:1049200092E092A381A38BE597E094A383A30E94D6
:10493000071786E89CE19093EB048093EA0460E01B
:1049400087E00E942002FE017196FC8FEB8F9E0192
:10495000275F3F4F3E8F2D8F8AEF93E0AC015527A5
:104960005AA349A30E94611D0E94611D0E94F40286
:10497000882341F080911B058C3009F463C048F412
:104980008B3001F1812C912C50ECA52E5FE7B52ED8
:1049900043C085518230B0F710911705612F70E048
:1049A000762F662766277F7780911805682B90E021
:1049B00080E00E94482E2DEC3CEC4CEC5DE30E9424
:1049C000DB2E5CC06091170570E090E080E00E94F3
:1049D000482E6B017C011091180517FF0AC0AC012D
:1049E0009B0160E070E080E89FEB0E94A52D6B01C9
:1049F0007C011F70612F70E090E080E00E944A2EE1
:104A00002DEC3CEC4CEC5DE30E94DB2EA701960103
:104A10000E94A62D4B015C010E94F402882309F438
:104A200065C080911B058B3030F08D3080F1855151
:104A3000823008F473C1C12CD12C40ECE42E4FE736
:104A4000F42E43C010911705612F70E090E080E0D4
:104A50000E94482E6B017C01609118056F7070E018
:104A600090E080E00E944A2E2DEC3CEC4CEC5DE3A3
:104A70000E94DB2EA70196010E94A62D4B015C012E
:104A800017FFCACFB7FAB094B7F8B094C5CF60910A
:104A9000160570E090E080E00E944A2E2DEC3CEC80
:104AA0004CEC5DE30E94DB2E6B017C0160911505EF
:104AB00070E090E080E00E944A2E9B01AC01C701AB
:104AC000B6010E94A62D6B017C01A5019401C501D0
:104AD000B4010E94482F811109C0A7019601C701A6
:104AE000B6010E94482F882309F42AC18090B4039C
:104AF0009090B503A090B603B090B703C090B003F8
:104B0000D090B103E090B203F090B30351E058A30A
:104B10008FE00E947F02BC01990F880B990B0E94C5
:104B20004A2E20E93EE34AEF5EE30E94DB2E20E0BE
:104B300030E040E251E40E94DB2E2B013C0120E0FA
:104B400030E0A9010E94D62E20E030E040E05FE393
:104B500087FD5CC1C301B2010E94A62D0E94122EE6
:104B60000E944A2E2DEC3CEC4CEC5DE30E94DB2EC7
:104B70001B012C0114E0712C612C8EE00E947F023D
:104B8000680E791E64E670E080E090E00E94B60254
:104B9000115099F7EAE6F2E08491ECE9F2E0149121
:104BA000E8E8F2E00491002309F435C181110E9484
:104BB000F701E02FF0E0EE0FFF1FE558FD4FA59144
:104BC000B4918C911823F1E0FF8F11111F8E809109
:104BD000BB039091BC030E940A05882309F48CC092
:104BE0000E94E8026FA378A789A79AA78091C203C1
:104BF0009091C303A091C403B091C5032FA138A520
:104C000049A55AA5281B390B4A0B5B0B28383341A1
:104C10004105510508F470C02FA138A549A55AA532
:104C20002093C2033093C3034093C4035093C5033E
:104C30008E010F5E1F4F21E041E0C501B4010E94CB
:104C400056270850110921E041E0C701B6010E9432
:104C500056270850110921E041E0C201B1010E942C
:104C600056271F92C8A0CF92DAA0DF92E9A0EF9258
:104C70001F92FF8CFF92C301969587959695879515
:104C80009F938F931F930F933E8D3F934D8D4F9323
:104C90005C8D5F938B8D8F93AFEDB1E0BF93AF933E
:104CA0008091BA031F928F938091B9038F93809163
:104CB000B8038F930E943128E090B803F090B903B5
:104CC000C090BB03D090BC030FB6F894DEBF0FBEFC
:104CD000CDBF90E080E0E114F10439F0D6011896E0
:104CE0006D917C91C7010E9426289C01A70167E570
:104CF00072E0C6010E94AE098091BB039091BC0393
:104D00000E940A0581118AC061E087E00E942002AA
:104D100060E085E00E94200260E0B2C0609115056D
:104D20007091160576276727762790E080E00E942D
:104D3000482E2DEC3CEC4CEC5DE30E94DB2EC3CE08
:104D400020E030E040E251E4C501B4010E94DB2ED6
:104D50004B015C0120E030E0A9010E94D62E20E04A
:104D600030E040E05FE387FD47C0C501B4010E9429
:104D7000A62D0E94122E0E944A2E2DEC3CEC4CECEB
:104D80005DE30E94DB2E4B015C0120E030E040E25D
:104D900051E4C701B6010E94DB2E6B017C0120E0CB
:104DA00030E0A9010E94D62E20E030E040E05FE331
:104DB00087FD27C0C701B6010E94A62D0E94122EB2
:104DC0000E944A2E2DEC3CEC4CEC5DE30E94DB2E65
:104DD0006B017C018092B4039092B503A092B6035C
:104DE000B092B703C092B003D092B103E092B20385
:104DF000F092B30318A28CCEC501B4010E94A52D78
:104E0000B8CFC701B6010E94A52DD8CFC301B2010A
:104E10000E94A52DA3CE21E02F8FD9CE60E087E0A0
:104E20000E942002C8A061E085E0CC2009F472CF86
:104E30000E9420020E94E8020091BE031091BF036D
:104E40002091C0033091C1036B017C01C01AD10ACB
:104E5000E20AF30A97018601053F11402105310559
:104E600090F06093BE037093BF038093C003909350
:104E7000C10361E08091BD03811160E06093BD03D7
:104E800086E00E94200280E090E0892B09F46ACD40
:104E90000E946704882309F465CD0E94000062CD5A
:104EA0008091D7049091D8040C941A30EF920F930C
:104EB0001F93CF93DF93E80134E047FD34E1042EE4
:104EC000000C550B57FF03C0519541955109E32E36
:104ED000022F242FAE010E943B2ACE01DF91CF91F9
:104EE0001F910F91EF9008958F929F92AF92BF9272
:104EF000CF92DF92EF92FF92CF93DF93EC01688124
:104F000079818A819B81611571058105910521F463
:104F100064E279ED8BE597E02DE133EF41E050E07D
:104F20000E940B2D49015A019B01AC01A7EAB1E493
:104F30000E942A2D6B017C01ACEEB4EFA501940117
:104F40000E94382DC60ED71EE81EF91EF7FE06C0B9
:104F500081E0C81AD108E10880E8F80AC882D9823D
:104F6000EA82FB82C701B6019F77DF91CF91FF9064
:104F7000EF90DF90CF90BF90AF909F908F9008956B
:104F80008F929F92AF92BF92CF92DF92EF92FF9259
:104F9000609108017091090180910A0190910B01C3
:104FA000611571058105910521F464E279ED8BE5C8
:104FB00097E02DE133EF41E050E00E940B2D4901D5
:104FC0005A019B01AC01A7EAB1E40E942A2D6B01B2
:104FD0007C01ACEEB4EFA50194010E94382DC60E01
:104FE000D71EE81EF91EF7FE06C081E0C81AD108D8
:104FF000E10880E8F80AC0920801D0920901E09225
:105000000A01F0920B01C701B6019F77FF90EF9064
:10501000DF90CF90BF90AF909F908F900895609356
:1050200008017093090180930A0190930B01089580
:10503000FB01DC014150504030F08D91059080190A
:1050400019F40020B9F7881B990B0895FC016150F1
:10505000704001900110D8F7809590958E0F9F1F9A
:105060000895AEE0B0E0E7E3F8E20C944B2D0D8933
:105070001E898F89988D2EE02C831A83098397FFD0
:1050800002C080E090E801979E838D83AE01455E6B
:105090005F4F698D7A8DCE0101960E9461284D8106
:1050A0005E8157FD0AC02F813885421753070CF4E3
:1050B0009A01020F131FF80110822E96E4E00C945F
:1050C000672DABE0B0E0E7E6F8E20C943D2D7C0103
:1050D0003B018A01FC0117821682838181FFC8C1CE
:1050E000CE0101965C01F7019381F30193FD859157
:1050F00093FF81913F01882309F453C1853239F42C
:1051000093FD859193FF81913F01853229F4B70189
:1051100090E00E947D2CE7CF912C212C312CFFE1D7
:10512000F31538F08B3211F190F4803209F18332AB
:1051300029F137FC3CC020ED280F2A3050F536FE0F
:1051400020C08AE0989E200D1124922E06C08D3238
:1051500091F0803371F7689430F8F30193FD8591F5
:1051600093FF81913F018111DACF21C0689431F81A
:10517000689432F8F2CF689433F8EFCF689434F83B
:10518000ECCFEAE02E9E200D1124222E689435F8F3
:10519000E4CF8E3229F436FC04C1689436F8DDCFB2
:1051A0008C3619F4689437F8D8CF8836B1F2982F36
:1051B0009F7D95549330E0F08336A1F18337C1F1A0
:1051C000833509F063C02801F2E04F0E511CF8014D
:1051D000C080D180692D70E036FC02C06FEF7FEF98
:1051E000C6010E94722C4C01689437F882010AC0F3
:1051F0000C5F1F4FFFE3F98388248394912C650192
:10520000E89437F833FE2DC0522C8114910471F5C7
:10521000552009F468CFB70180E290E00E947D2C10
:105220005A94F6CFF801808189830E5F1F4FE4CF37
:105230002801F2E04F0E511CF801C080D180692D89
:1052400070E036FC02C06FEF7FEFC6010E94262897
:105250004C018201D5CFB70180E290E00E947D2C05
:105260002A942814190409F0B0F7CECFF60137FCC0
:10527000859137FE81916F01B70190E00E947D2CEE
:1052800051105A94F1E08F1A9108BFCF843619F06B
:10529000893609F077C0F80137FE6BC060817181F3
:1052A000828193810C5F1F4FF32DFF763F2E97FF76
:1052B00009C090958095709561957F4F8F4F9F4F56
:1052C000689437F82AE030E0A5010E94AD2CC82E82
:1052D000CA188C2C432C36FE0CC0E89440F8C91434
:1052E00040F434FE05C032FC03C0F32DFE7E4F2E89
:1052F000892C44FE95C0FE01EC0DF11D80818033A8
:1053000009F087C0242D297E422E842D8870582EC6
:1053100043FC95C040FE8FC09C2C821418F42C0CCA
:10532000922C981844FE91C0B70180E390E00E944F
:105330007D2C42FE09C088E790E041FE02C088E56E
:1053400090E0B7010E947D2CC91408F48AC0CA9469
:10535000D12C9FEFC91AD90ACA0CDB1CF601829125
:105360006F01B70190E00E947D2CAC14BD04B1F731
:105370004FCF60817181072E000C880B990B0E5F57
:105380001F4F92CFD32CE894D4F82AE030E0853731
:1053900039F1232D297FD22E8F3601F148F488353B
:1053A000A9F0F701868197812B96E2E10C94592DA3
:1053B000803749F08837A9F7D4FE02C06894D2F844
:1053C00020E130E00DC06894D4F8F6CF34FE03C07D
:1053D000822F8660D82E20E132E002C028E030E043
:1053E000F801D7FE0FC060817181828193810C5FCB
:1053F0001F4FA5010E94AD2CC82ECA183D2CE89461
:1054000037F867CF6081718190E080E00E5F1F4FB9
:10541000F0CF42FC02C0839478CF8394839475CFFD
:10542000842D867809F471CFF6CFB70180E290E041
:105430000E947D2C83948214C0F3512C73CF522C84
:105440005818821408F46ECFF8CF842D867809F4AA
:105450007BCF8BE241FE80E247FC8DE2B70190E01A
:1054600071CFB70180E390E00E947D2C9A946CCFBD
:105470008FEF9FEF99CFA9E0B0E0E1E4FAE20C945E
:10548000432D6A01F22EB02E102FFBE3AF2EA01693
:1054900008F41BE31F5F012F27E0AE014F5F5F4F52
:1054A0000E949A2BBC018981982F9970913009F440
:1054B0003FC09BE2E1FC04C09E2D9170E0FC3AC02D
:1054C0005E2D5071E82FE87083FF46C084E0911193
:1054D00001C083E0EF2DE81B8F1508F0E0E0D60156
:1054E0008E2F20E2552351F1992329F0D6019C9368
:1054F000C60101966C0196012D5F3F4FE2FE24C06C
:105500008EE4D6018C9391E411969C931197129698
:105510008C93D9018E2F90E281111BC0E20FF32FE3
:10552000F11D10828EEF9FEF2996ECE00C945F2D19
:105530009DE2C6CF90E2C4CF2D9381508111FCCF64
:10554000CE0ED11CE0E0D0CF8EE6D6018C9391E652
:10555000DBCF9D938150E0CF482F447082FF3DC048
:1055600084E0911101C083E08F1510F4EF2DE81B4A
:10557000D6018E2F20E2552309F1992329F0D60177
:105580009C93C60101966C0196012D5F3F4FE2FE90
:105590001BC089E4D6018C938EE411968C931197ED
:1055A00086E412968C93D9018E2F90E2882309F419
:1055B000B5CF9D938150FACF2D9381508111FCCFAF
:1055C000CE0ED11CE0E0D9CF89E6D6018C938EE6D1
:1055D00011968C93119786E6E4CF9B0177FF02C06A
:1055E00030E020E0A1E0B0E0911102C0B0E0A0E026
:1055F000F9013196AE0FBF1F8B2C912CBB2009F403
:1056000061C05401EFEFAE1ABE0AAA0DBB1DFA1617
:105610001B0619F014F04F2D4A1B511188C0E3FCF2
:1056200059C07601A42FB0E2A1114FC0C40ED11C05
:10563000992309F45BC040E0D6011196F6019083EE
:105640006D01552309F448C0012F060F9A81582F88
:10565000507184FF03C0913309F4015010160CF00F
:1056600047C0093008F008E0EEE2FE2E5B01A01A08
:10567000B10885019194819491082F3F320729F454
:10568000D601FC92F60131966F016217730794F10F
:10569000021713077CF5DB01A21BB30BAA24A3940A
:1056A000B12CAC0EBD1EAA0DBB1D11968C912150C4
:1056B0003109D601119628153905F4F0F6018083D9
:1056C0006D01DBCFB12CA12CA0CFF701B1937F01ED
:1056D000A150AACF9111B0CFD601942F50E302C0B0
:1056E0005D9391509111FCCFC40ED11C40E0ACCF22
:1056F00001E0BACF80E3DBCF6217730731F4963352
:1057000088F4953311F4552369F0F6018083FD0187
:10571000842F90E2811108C0A40FB11D1C9290E06B
:1057200080E002CF81E3F1CF91938150F3CF9111CB
:1057300083CF8ACF283008F027E03327DA01990F8A
:10574000311D87FD916000966105710539F4326065
:105750002E5F3D9330E32A95E1F708959F3F30F0A7
:1057600080387105610509F03C5F3C5F3D939130E5
:1057700008F08068911DDF93CF931F930F93FF92E2
:10578000EF92192F987F9695E92F96959695E90FA8
:10579000FF27EE53FF4F99273327EE24FF24A7015D
:1057A000E70105900894079428F4360FE71EF81EC9
:1057B000491F511D660F771F881F991F0694A1F777
:1057C0000590079428F4E70EF81E491F561FC11DC7
:1057D000770F881F991F661F0694A1F705900794FD
:1057E00028F4F80E491F561FC71FD11D880F991F97
:1057F000661F771F0694A1F70590079420F4490FC0
:10580000561FC71FD81F990F661F771F881F069442
:10581000A9F784911095177041F0D695C7955795C3
:105820004795F794E7941A95C1F7E8E6F0E0689495
:105830001590159135916591959105907FE273953D
:10584000E118F10A430B560BC90BD009C0F7E10C64
:10585000F11E431F561FC91FD01D7EF4703311F473
:105860008A95E6CFE894015030F0080F0AF400273B
:10587000021708F4202F2395022F7A3328F079E3BA
:105880007D932A95E9F710C07D932A9589F60694B1
:1058900097956795379517951794E118F10A430B7B
:1058A000560BC90BD00998F023957E9173957A33E6
:1058B00008F070E37C932013B8F77E9170617D93BC
:1058C00030F0839571E37D9370E32A95E1F711241D
:1058D000EF90FF900F911F91CF91DF91992787FD56
:1058E00090950895FC010590615070400110D8F723
:1058F000809590958E0F9F1F08950F931F93CF93C0
:10590000DF93182F092FEB018B8181FD09C01FEF59
:105910000FEF812F902FDF91CF911F910F9108955D
:1059200082FF14C02E813F818C819D812817390709
:105930003CF4E881F981CF01019699838883108333
:105940008E819F8101969F838E83E3CFE885F985C1
:10595000812F0995892BA1F3DACFFA01AA272830E4
:1059600051F1203181F1E8946F936E7F6E5F7F4F2C
:105970008F4F9F4FAF4FB1E03ED0B4E03CD0670FA8
:10598000781F891F9A1FA11D680F791F8A1F911DFB
:10599000A11D6A0F711D811D911DA11D20D009F44B
:1059A00068943F912AE0269F11243019305D31938D
:1059B000DEF6CF010895462F4770405D4193B3E076
:1059C0000FD0C9F7F6CF462F4F70405D4A3318F01D
:1059D000495D31FD4052419302D0A9F7EACFB4E0CE
:1059E000A6959795879577956795BA95C9F7009786
:1059F0006105710508959B01AC010A2E0694579527
:105A0000479537952795BA95C9F7620F731F841F7D
:105A1000951FA01D0895052E97FB1EF400940E946B
:105A2000222D57FD07D00E94742D07FC03D04EF4A1
:105A30000C94222D50954095309521953F4F4F4F16
:105A40005F4F089590958095709561957F4F8F4F2A
:105A50009F4F08950E94962DA59F900DB49F900D85
:105A6000A49F800D911D11240895B7FF0C942A2D39
:105A70000E942A2D821B930B08952F923F924F92E2
:105A80005F926F927F928F929F92AF92BF92CF92CE
:105A9000DF92EF92FF920F931F93CF93DF93CDB7D7
:105AA000DEB7CA1BDB0B0FB6F894DEBF0FBECDBF4F
:105AB00009942A88398848885F846E847D848C8420
:105AC0009B84AA84B984C884DF80EE80FD800C8129
:105AD0001B81AA81B981CE0FD11D0FB6F894DEBF0C
