:100000000C9420010C9448010C9448010C94480174
:100010000C9448010C9448010C9448010C9448013C
:100020000C9448010C9448010C9448010C9448012C
:100030000C9448010C9448010C9448010C9448011C
:100040000C94401E0C9448010C94B01E0C948A1E13
:100050000C9448010C9448010C9448010C944801FC
:100060000C9448010C94480100407A10F35A00A007
:10007000724E18090010A5D4E80000E87648170071
:1000800000E40B54020000CA9A3B000000E1F505B1
:10009000000080969800000040420F000000A086FB
:1000A00001000000102700000000E803000000002D
:1000B0006400000000000A000000000001000000D1
:1000C00000002C76D888DC674F0823DFC1DFAE59EB
:1000D000E1B1B796E5E3E453C63AE651997696E87E
:1000E000E6C28426EB898C9B62ED407C6FFCEFBC02
:1000F0009C9F40F2BAA56FA5F490055A2AF75C932D
:100100006B6CF9676DC11BFCE0E40D47FEF520E662
:10011000B500D0ED902E0300943577050080841E45
:10012000080000204E0A000000C80C333333330FA0
:10013000986E12831141EF8D2114893BE65516CF3D
:10014000FEE6DB18D1844B381BF77C1D901DA4BB49
:10015000E424203284725E228100C9F124ECA1E5FE
:100160003D277B2274656D706572617475726522BE
:100170003A25732C202268756D6964697479223A76
:1001800025732C226C647256616C7565223A257554
:100190002C2269734461726B223A25752C226D6F93
:1001A00074696F6E4465746563746564223A25757D
:1001B0002C202272656C61795374617465223A2532
:1001C000752C22646F6F724F70656E223A25752C04
:1001D0002273656E736F724572726F72223A257563
:1001E0007D0000000000240027002A00000000001D
:1001F000250028002B000000000800020100000379
:1002000004070000000000000000000000002300C0
:100210002600290004040404040404040202020267
:1002200002020303030303030102040810204080B9
:10023000010204081020010204081020E21E8A2591
:1002400011241FBECFEFD8E0DEBFCDBF12E0A0E08B
:10025000B1E0E4E2FEE502C005900D92A632B107DE
:10026000D9F724E0A6E2B2E001C01D92AD3DB2078D
:10027000E1F711E0CFE1D1E004C02197FE010E9437
:10028000A42DCE31D107C9F70E94F01F0C94052F81
:100290000C940000CF92DF92EF92FF92CF93DF9306
:1002A000B091CD04A0E08111AB2F8091CE0490E0FD
:1002B000880F991FAC01465F5D4FC090D304D0906A
:1002C000D404E090D504F090D60430E020E0FA01A8
:1002D000C591D491E881B90190E080E0EB23EA1365
:1002E0000AC02F5F3F4F6C157D058E059F0578F383
:1002F0006FEF7FEFCB01DF91CF91FF90EF90DF9019
:10030000CF900895CF93DF93EC01FA013296E60F78
:10031000F71FDC019D012C1B3D0BCF01861B970BAA
:100320004D91442311F04193F5CFAC01421B530B87
:10033000640F751FFB013297308361507109FB0117
:100340002083DF91CF9108958CBD9DBD089520E35A
:10035000FC0120833296862F82958F706F706A30F1
:1003600030F4605D6293682F8111F5CF0895695C68
:10037000F9CFFC01818D928D08950895833081F02D
:1003800028F4813099F08230A9F008958730A9F0DF
:100390008830C9F08430B1F4809180008F7D03C033
:1003A000809180008F7780938000089584B58F7747
:1003B00084BD089584B58F7DFBCF8091B0008F7789
:1003C0008093B00008958091B0008F7DF9CFCF93D6
:1003D000DF93282F30E0F901EA50FE4F8491F901B4
:1003E000E85DFD4FD491F901EC5EFD4FC491CC2343
:1003F000A1F081110E94BE01EC2FF0E0EE0FFF1F73
:10040000E65FFD4FA591B491EC91ED2381E090E082
:1004100009F480E0DF91CF91089580E090E0FACF79
:100420001F93CF93DF93282F30E0F901EA50FE4F5E
:100430008491F901E85DFD4FD491F901EC5EFD4F27
:10044000C491CC23A9F0162F81110E94BE01EC2F7C
:10045000F0E0EE0FFF1FE451FE4FA591B4918FB76E
:10046000F894EC91111108C0D095DE23DC938FBF76
:10047000DF91CF911F910895DE2BF8CFCF93DF93BB
:1004800090E0FC01E85DFD4F24918C5E9D4FFC01E6
:1004900084918823C9F090E0880F991FFC01EE51E8
:1004A000FE4FA591B491FC01E451FE4FC591D4914A
:1004B00061110DC09FB7F8948C91209582238C9385
:1004C0008881282328839FBFDF91CF9108956230D0
:1004D00051F49FB7F8943C91822F809583238C939D
:1004E000E8812E2BEFCF8FB7F894EC912E2B2C9325
:1004F0008FBFEACF3FB7F89480917C0390917D0342
:10050000A0917E03B0917F0326B5A89B05C02F3F25
:1005100019F00196A11DB11D3FBFBA2FA92F982F29
:100520008827BC01CD01620F711D811D911D42E024
:10053000660F771F881F991F4A95D1F708958F92EC
:100540009F92AF92BF92CF92DF92EF92FF924B01B8
:100550005C010E947A026B017C010E947A026C1994
:100560007D098E099F09683E734081059105A8F3B6
:1005700021E0821A9108A108B10888EEC80E83E034
:10058000D81EE11CF11C81149104A104B10429F7C7
:10059000FF90EF90DF90CF90BF90AF909F908F90A3
:1005A00008952FB7F8946091780370917903809142
:1005B0007A0390917B032FBF0895CF92DF92EF9241
:1005C000FF920F931F93CF93DF93CDB7DEB7C05445
:1005D000D1400FB6F894DEBF0FBECDBF0E94D1024E
:1005E0000091CF041091D0042091D1043091D20415
:1005F0006B017C01C01AD10AE20AF30A9701860155
:10060000003D17402105310590F48091D704C05C6E
:10061000DE4F0FB6F894DEBF0FBECDBFDF91CF9196
:100620001F910F91FF90EF90DF90CF90089560930E
:10063000CF047093D0048093D1049093D20410928D
:10064000CA041092C9041092C8041092C7041092F0
:10065000C60462E08091CB040E943E0261E070E03B
:1006600080E090E00E949F0261E08091CB040E94B4
:100670003E0260E08091CB040E9410028091CC0485
:100680008551823020F58BE291E10197F1F762E02C
:100690008091CB040E943E028091D80490E0823089
:1006A000910538F0880F991F880F991F05970197BA
:1006B000F1F7F89480E00E944A016F3F7F4F8F4F1F
:1006C0009F4F61F41092D704789480E0A0CF64E14A
:1006D00070E080E090E00E949F02D9CF81E00E940C
:1006E0004A016F3F7F4F8F4F9F4F61F38E010F5F26
:1006F0001F4F6E012FEBC21A2EEFD20A780180E055
:100700000E944A01F701608371838283938381E0B1
:100710000E944A01F7016483758386839783F8E01A
:10072000EF0EF11CEC14FD0451F7789430E020E05A
:10073000F801C080D180E280F380448155816681D8
:100740007781FFEFCF16DF06EF06FF0631F04F3F50
:100750008FEF58076807780719F41092D704B5CFC0
:10076000F90183E0F595E7958A95E1F7EA53FB4FA8
:100770008081880FC416D506E606F70610F180833F
:100780002F5F3F4F085F1F4F2832310589F6409198
:10079000CA042091C6048091C704280F3327331F51
:1007A0008091C804280F311D8091C904820F932FB6
:1007B000911D99274817190681F681E08093D70487
:1007C00026CF8160DCCFAF92BF92CF92DF92EF92C3
:1007D000FF920F931F93CF93DF936C017B018B01EB
:1007E000040F151FEB015E01AE18BF08C017D1073B
:1007F00059F06991D601ED91FC910190F081E02DC5
:10080000C6010995892B79F7C501DF91CF911F9119
:100810000F91FF90EF90DF90CF90BF90AF90089531
:10082000FC01538D448D252F30E0842F90E0821BF6
:10083000930B541710F0CF96089501970895FC017B
:10084000918D828D981761F0A28DAE0FBF2FB11DD3
:100850005D968C91928D9F5F9F73928F90E008952B
:100860008FEF9FEF0895FC01918D828D981731F0E5
:10087000828DE80FF11D858D90E008958FEF9FEF39
:100880000895FC01918D228D892F90E0805C9F4F0F
:10089000821B91098F73992708958DE993E00E9437
:1008A000410421E0892B09F420E0822F089580E0A3
:1008B00090E0892B29F00E944D0481110C940000D6
:1008C0000895FC01A48DA80FB92FB11DA35ABF4FE5
:1008D0002C91848D90E001968F739927848FA6893F
:1008E000B7892C93A089B1898C91837080648C9393
:1008F000938D848D981306C00288F389E02D808142
:100900008F7D80830895EF92FF920F931F93CF9373
:10091000DF93EC0181E0888F9B8D8C8D98131AC03A
:10092000E889F989808185FF15C09FB7F894EE8921
:10093000FF896083E889F98980818370806480837E
:100940009FBF81E090E0DF91CF911F910F91FF90C9
:10095000EF900895F62E0B8D10E00F5F1F4F0F7371
:100960001127E02E8C8D8E110CC00FB607FCFACF2C
:10097000E889F989808185FFF5CFCE010E94610465
:10098000F1CFEB8DEC0FFD2FF11DE35AFF4FF082FD
:100990009FB7F8940B8FEA89FB8980818062CFCF63
:1009A000CF93DF93EC01888D8823B9F0AA89BB89A6
:1009B000E889F9898C9185FD03C0808186FD0DC091
:1009C0000FB607FCF7CF8C9185FFF2CF808185FFB2
:1009D000EDCFCE010E946104E9CFDF91CF91089560
:1009E000CF93DF93FC01A481B581109711F480E0CF
:1009F00029C0EC01ED91FC9111970688F789E02D53
:100A0000CD0109952FA138A5811119C0232B79F7A4
:100A10008DEF9FEF98A78FA38C819D81DC01ED91D5
:100A2000FC910680F781E02D09958C819D81DC0188
:100A3000ED91FC910488F589E02D0995D8CF81E0EE
:100A4000232BA9F6DF91CF910895CF92DF92EF92F9
:100A5000FF920F931F93CF93DF9300D000D0CDB7B9
:100A6000DEB78C01F90180E0DE0111967D019E2F39
:100A70009F77EE0FEF2FEE1FFF0BF195309709F0E8
:100A80009068D701A80FB11D9C938F5F309779F7BD
:100A900090E0FA01E81BF90B6483FA01E81BF90BFB
:100AA0003596D701BD016E197F09681779071CF4C7
:100AB0006D916193F7CFFC013196D80114968D9119
:100AC0009C917F01E20EF31EBA016E1B7F0B6B5FE0
:100AD0007F4FDC01ED91FC910280F381E02DA701B5
:100AE00009956C010E94D102F801608B718B828B99
:100AF000938B81E0EC14FD0409F080E00F900F90DF
:100B00000F900F90DF91CF911F910F91FF90EF9079
:100B1000DF90CF900895EF92FF920F931F93CF93A2
:100B2000DF93EC018B017A010E94D102688B798BF3
:100B30008A8B9B8B8C819D81DC01ED91FC910280E5
:100B4000F381E02DA701B801DF91CF911F910F91A3
:100B5000FF90EF9009941F93CF93DF93EC01162F32
:100B60000E94D102688B798B8A8B9B8B8C819D81B3
:100B7000DC01ED91FC910190F081E02D612FDF917E
:100B8000CF911F9109948F929F92AF92BF92CF9273
:100B9000DF92EF92FF920F931F93CF93DF93EC01BD
:100BA0008B010E94D1024B015C018C819D81DC0193
:100BB000ED91FC910084F185E02D0995892BA9F434
:100BC0000E94D1026B017C01C818D908EA08FB0811
:100BD0002C853D85A8EEB3E00E94C22BC616D70631
:100BE000E806F90610F380E00CC08C819D81DC01E1
:100BF000ED91FC910284F385E02D0995F801808345
:100C000081E0DF91CF911F910F91FF90EF90DF90E6
:100C1000CF90BF90AF909F908F9008953F924F924A
:100C20005F926F927F928F929F92AF92BF92CF927C
:100C3000DF92EF92FF920F931F93CF93DF93CDB785
:100C4000DEB764970FB6F894DEBF0FBECDBF8C0140
:100C50006B01DC0116966D917C910E94C305811198
:100C60001BC060E070E0CB0164960FB6F894DEBF65
:100C70000FBECDBFDF91CF911F910F91FF90EF90ED
:100C8000DF90CF90BF90AF909F908F907F906F90AC
:100C90005F904F903F900895D8011696ED91FC918A
:100CA00030801982E1E0F0E0FB83EA83412C512C93
:100CB0003201812C912C54018394BE016F5F7F4FD0
:100CC000C8010E94C305882361F2EA80FB80BFEF60
:100CD000EB1AFB0A8981D8011696ED91FC912A81C5
:100CE0003B81E20FF31F8083E981AE2FAF77B0E045
:100CF000A50194010E94562B460E571E681E791EB0
:100D000037E0880C991CAA1CBB1C3A95D1F7E7FD6B
:100D100044C0332D307F332E8FEF8E0DD6018C9350
:100D2000B0E33B1353C0F801668177816E0D7F1DE0
:100D3000C8010E94C305882309F493CFD8011696F1
:100D40006D917C918A819B810296680F791FC80101
:100D50000E94C305882309F484CFEA80FB80B3E0B6
:100D6000EB0EF11CD8011696ED91FC91D6018C91F9
:100D7000DF01A80FB11D11968C91119790E0982F6B
:100D8000882712962C91820F911D208121FD0296B9
:100D9000F2E0E0E030E020E01FC0FB82EA82970151
:100DA0002530310509F089CF8FEF9FEFD801989654
:100DB0009C938E93979714968D919C91DC01ED9165
:100DC000FC910488F589E02D09954BCFF0E0E0E037
:100DD00030E020E090E080E0A70170E060E08F2E3E
:100DE0009E2EA32EB22E481959096A097B094E83FB
:100DF0005F83688779879C0150E040E02B873C87C0
:100E00004D875E874E815F8168857985480D591DC4
:100E10006A1D7B1D4A835B836C837D8384149504E8
:100E2000A604B70408F051C0BE016F5F7F4FC80130
:100E30000E94C305882309F414CFD80195960D901C
:100E4000BC91A02DBC8BAB8BAB2B49F1B0E33B121B
:100E500026C0F60120814EEF5FEF6FEF7FEF421B60
:100E60005109610971098A819B81AC81BD81480F5B
:100E7000591F6A1F7B1F8B859C85AD85BE85841796
:100E80009507A607B70758F4AB89BC89ED91FC918B
:100E900011970190F081E02D6981CD010995F8014C
:100EA00080859185E816F90650F489810680F781DE
:100EB000E02DEE0DFF1D8083FFEFEF1AFF0A2FEFED
:100EC000821A920AA20AB20A9DCFD80195968D91F4
:100ED0009C919697892B81F418968D919C91B0E006
:100EE000A0E02A813B814C815D8182179307A40792
:100EF000B50710F4F12CE12CB70190E080E0B4CEFE
:100F0000FC0120812EBD9B012150310941F051810E
:100F10000DB407FEFDCF4EB55EBD4193F5CF6150D8
:100F20007109860F971F0DB407FEFDCF2EB5FC018A
:100F300020830895E0912B02F0912C028081909102
:100F40002A02892B80830895E0912B02F0912C02D4
:100F5000908180912A0280958923808308958EBD97
:100F600000000DB407FEFDCF8EB50895AF92BF927D
:100F7000CF92DF92EF92FF920F931F93CF93DF9365
:100F8000CDB7DEB728970FB6F894DEBF0FBECDBF42
:100F90008C017B016A0180919C038333E1F4580149
:100FA000A40EB51EA016B10609F46FC00E94A407D6
:100FB00080EF0E94AF07812F0E94AF07802F0E9411
:100FC000AF070F5F1F4FF70181917F010E94AF07AD
:100FD0000E949A07E7CF5B01A40EB51E8433C1F4CB
:100FE0000E94A40719830A838D2D80688B83CC828D
:100FF00064E070E0CE0101960E948007AE14BF0449
:1010000009F441C0F70181917F010E94AF07F6CF3B
:101010000E94A4070F3F110509F028F419820A83E2
:1010200084E08B830CC017FD17C019820A8333E05C
:10103000169507953A95E1F7007E0C600B8386E0E4
:10104000C816D104A0F5F701DE011496EA15FB05D8
:1010500099F081918D93FACFC80126E096958795F6
:101060002A95E1F7807E19830A830115104C10F44C
:101070008461D7CF8C61D5CFB6016D5F7F4FCE0134
:1010800001960E9480070E949A07C60128960FB613
:10109000F894DEBF0FBECDBFDF91CF911F910F91AE
:1010A000FF90EF90DF90CF90BF90AF90089563E0F6
:1010B00070E0CE0101960E948007F70181917F01C7
:1010C0000E94AF07AE14BF04C1F7DDCFCF93DF930B
:1010D0001F92CDB7DEB7898341E050E0BE016F5F5C
:1010E0007F4F90E080E00E94B6070F90DF91CF9194
:1010F000089590E020919C03233339F40C96982FA7
:10110000990F990F990F80E008954896F8CFDA016A
:10111000E0912E02F0E0FE2FEE27E60FF71F90E0A1
:10112000982F8827A901BD018E0F9F1F0C94B60729
:10113000CF93DF9300D0CDB7DEB779836A8322E007
:1011400030E0AE014F5F5F4F60E170E00E948708C2
:101150000F900F90DF91CF910895CF93DF9300D040
:10116000CDB7DEB779836A8322E030E0AE014F5F0E
:101170005F4F64E070E00E9487080F900F90DF914E
:10118000CF910895CF93DF931F92CDB7DEB7209113
:101190002E0230E0322F2227260F371F90E0982FA3
:1011A0008827498341E050E0BE016F5F7F4F820F87
:1011B000931F0E94B6070F90DF91CF910895CF93B0
:1011C000DF931F92CDB7DEB76983DC01ED91FC910F
:1011D0000280F381E02D41E050E0BE016F5F7F4F60
:1011E00009950F90DF91CF9108950895FC019485A2
:1011F000FB018485981303C081E0943008F080E0FF
:101200000895CF93DF931F92CDB7DEB76983DC01DA
:10121000ED91FC910280F381E02D41E050E0BE01B0
:101220006F5F7F4F09950F90DF91CF91089544E054
:1012300050E0BC018FE090E00C94B6070895FF9257
:101240000F931F93CF93DF93EB01FC01178A168A4C
:101250002A81211109C02B81211106C02C81211165
:1012600003C02D81222301F141155105E9F08A01C6
:10127000FC01F08C80E591E00E94A401AE014E5F7C
:101280005F4F24E030E06CE070E08F2D0E94870813
:10129000B8018F2D0E94980881E090E0DF91CF91F6
:1012A0001F910F91FF90089580E0F7CFFC01848596
:1012B00095850895FC018489958908952DE931E08B
:1012C000FC0131832083FB01408951896289738944
:1012D000FC0142835383648375830895DC01ED919F
:1012E000FC91048CF58DE02D099490E080E0089548
:1012F000FC01768765870895DC01ED91FC9102A0E1
:10130000F3A1E02D099591E089270895862F08958E
:1013100081E08627089521E0FC018485843008F06F
:1013200020E0822F08950895AF92BF92CF92DF926E
:10133000EF92FF920F931F93CF93DF9300D000D0D3
:10134000CDB7DEB78C016B017A0180919C038333AA
:10135000E9F45B016801C40ED51EC016D106A9F1DF
:101360000E94A4078FE00E94AF07812F0E94AF0761
:10137000802F0E94AF070F5F1F4F80E00E94AF07D2
:10138000F50181935F010E949A07E7CF843369F5E5
:101390000E94A40719830A838F2D8F778B83EC8299
:1013A00064E070E0CE0101960E948007A70170E022
:1013B00060E0C6010E94EE2EE114F10421F0B701B5
:1013C000C6010E9480070E949A07C7010F900F90E4
:1013D0000F900F90DF91CF911F910F91FF90EF90A1
:1013E000DF90CF90BF90AF9008950E94A4070F3F69
:1013F000110509F030F419820A831B8263E070E062
:10140000D1CF17FD0BC019820A8333E016950795DB
:101410003A95E1F7007E08600B83F0CFC80126E023
:10142000969587952A95E1F7807E19830A830115A1
:10143000104C18F480618B83E1CF8861FCCFCF938F
:10144000DF931F92CDB7DEB720912E0230E0322F0E
:101450002227260F371F90E0982F882741E050E081
:10146000BE016F5F7F4F820F931F0E949409898195
:101470000F90DF91CF910895CF93C82F462F61E051
:1014800070E00E94C20861E070E08C2F0E941F0A89
:101490008111F9CFCF910895CF93C82F80E591E0C6
:1014A0000E94A40168E070E08C2FCF910C943C0A5C
:1014B000CF93C82F80E591E00E94A40160E170E025
:1014C0008C2FCF910C943C0ACF93DF93EC01888D45
:1014D000843020F40E94580A84E0888FDF91CF91F5
:1014E0000895CF93C82F80E591E00E94A40163E0A6
:1014F00070E08C2FCF910C941F0ACF93DF93EC01F7
:101500008C858430D0F40E94710A843189F088235C
:1015100079F0883169F021E08C3159F4E881F98162
:101520000084F185E02DCE01099521E0892B09F495
:1015300020E0822FDF91CF91089580E0FBCFCF9202
:10154000DF92EF92FF92CF93DF93EC018C85843092
:1015500068F40E944C0A0E94D1026B017C018C85C8
:101560000E94710A811109C084E08C87DF91CF91BC
:10157000FF90EF90DF90CF90089561E070E080E001
:1015800090E00E949F020E94D102AB01BC014C1965
:101590005D096E097F098D859E85B0E0A0E0481742
:1015A00059076A077B07D8F28C850E94580ADCCF5E
:1015B000CF93FC01C08D80E591E00E94A40160E220
:1015C00070E08C2F0E943C0A62E070E08C2F0E9439
:1015D0001F0A84FD16C062E070E08C2F0E941F0A73
:1015E00083FF0AC048E162E070E08C2F0E94C208CD
:1015F00080E090E0CF91089580E591E00E94A40101
:10160000E3CF40E162E070E08C2F0E94C20881E0ED
:10161000F0CFCF93DF931F92CDB7DEB741E050E01C
:10162000BE016F5F7F4F90E080E00E949409898146
:101630000F90DF91CF910895CF93DF93C4E1D0E075
:101640000E94090B882361F061E070E080E090E087
:101650000E949F022197A1F780E0DF91CF9108952A
:1016600081E0FBCF1F93CF93DF931F92CDB7DEB7FF
:10167000182F80E591E00E94A401812F0E94790833
:1016800027E0129FF0011124E058FC4F22813381A2
:10169000377041E050E0BE016F5F7F4F820F931FB4
:1016A0000E94940989810F90DF91CF911F91089535
:1016B000FC01808D843040F4218D328D232B21F06C
:1016C0000E94320B90E008958FEF9FEF0895CF9323
:1016D000DF93FC012485243028F08FEF9FEFDF910A
:1016E000CF910895EC010190F081E02D0084F18507
:1016F000E02D0995892B89F38C850E94320B90E0AF
:10170000EECFDA01E0912E02F0E0FE2FEE27E60F99
:10171000F71F90E0982F8827A901BD018E0F9F1F0A
:101720000C9494098F929F92AF92BF92CF92DF92C6
:10173000EF92FF921F93CF93DF93CDB7DEB72C9735
:101740000FB6F894DEBF0FBECDBF20919C0314E00E
:10175000222339F16B017C0180E591E00E94A40114
:101760005E0127E0A20EB11C450110E063E070E0CD
:10177000812F0E941F0AF40181934F01882349F1B0
:101780001F5F143099F710E0F50181915F018D31F1
:10179000D9F08831C9F08A518230B0F01F5F14301F
:1017A00099F7812F2C960FB6F894DEBF0FBECDBFF0
:1017B000DF91CF911F91FF90EF90DF90CF90BF907E
:1017C000AF909F908F90089560E170E0812F0E940C
:1017D0003C0AA12EB12C83EE93E00197F1F742E889
:1017E00070E060E0812F0E94C2084FEF62E070E07D
:1017F000812F0E94C208B601C114D10491F48091D6
:1018000006019091070101968115F0EC9F0708F4FD
:101810005CC090930701809306016091060170916E
:101820000701812F0E94AD0886E0E2E1F1E0DE01D0
:10183000119601900D928A95E1F7F70183818F77D8
:101840008C8384818D8385818E83A7014E5F5F4F5A
:1018500024E030E06CE070E0812F0E948708B60140
:10186000812F0E94980826E030E0AE014F5F5F4F65
:1018700066E070E0812F0E94870861E070E0812FB0
:101880000E943C0A27E02A9DC0012B9D900D112447
:101890009C0120583C4F7901F9011182108222E00D
:1018A00030E0AE01455F5F4F68E270E0812F0E943B
:1018B000810B8B859C85982789279827F70193832F
:1018C00082831682158214826CCF80E090ECA1CFC7
:1018D000CF92DF92EF92FF920F931F93CF93DF93FC
:1018E00000D000D000D0CDB7DEB78C016B017A01FB
:1018F000FC01808D843010F40E94580A8DE991E03B
:101900009A838983F60182819381A481B5818B8337
:101910009C83AD83BE83B701CE0101960E94920BDA
:10192000F801808F8430A0F4F586E486128E118E43
:1019300081E026960FB6F894DEBF0FBECDBFDF91D3
:10194000CF911F910F91FF90EF90DF90CF9008956E
:1019500080E0EFCFAF92BF92CF92DF92EF92FF92F3
:101960000F931F93CF93DF9300D000D000D0CDB75B
:10197000DEB7082F6B0180E591E00E94A4019E0173
:101980002F5F3F4F7901590110E063E070E0812F34
:101990000E941F0AF50181935F01882341F11F5FB7
:1019A000143099F710E0F70181917F018D31D1F06A
:1019B0008831C1F08A518230A8F01F5F143099F746
:1019C000812F26960FB6F894DEBF0FBECDBFDF91F4
:1019D000CF911F910F91FF90EF90DF90CF90BF902C
:1019E000AF90089560E170E0812F0E943C0AE12EE3
:1019F000F12C83EE93E00197F1F7402F70E060E067
:101A0000812F0E94C2084FEF62E070E0812F0E9498
:101A1000C208B601CD2889F4809106019091070192
:101A200001968115F0EC9F0798F190930701809340
:101A300006016091060170910701812F0E94AD0897
:101A400061E070E0812F0E943C0A27E02E9DC001DA
:101A50002F9D900D11249C0120583C4F7901F901D4
:101A60001182108222E030E0AE014B5F5F4F68E2EE
:101A700070E0812F0E94810B8D819E81982789279C
:101A80009827F7019383828316821582148298CF58
:101A900080E090ECCACFCF92DF92EF92FF921F933B
:101AA000CF93DF93EC017B016A018C85843048F48D
:101AB0000E94710A882319F08C850E944C0A84E0E8
:101AC0008C87F70182819381A481B5810097A1055C
:101AD000B10551F490E080E0DF91CF911F91FF902C
:101AE000EF90DF90CF9008958F3F9F4FAF4FBF4F44
:101AF00089F380919C03811103C084E08C87EACF35
:101B000070E060E081E20E94AA0C182F8C8784307C
:101B100008F780E591E00E94A401A7014E5F5F4FA6
:101B200024E030E06CE070E0812F0E948708B6016D
:101B3000812F0E94980864E070E0812F0E943C0A87
:101B40000E94D1026B017C018C850E94710A873151
:101B500009F18C31F9F0882309F4BCCF0E94D1023D
:101B6000AB01BC014C195D096E097F098D859E850D
:101B7000B0E0A0E084179507A607B70738F061E04A
:101B800070E080E090E00E949F02DECF8C850E9492
:101B9000580AB3CF81E090E09FCF0F931F93CF936C
:101BA000DF93EC018B01888D843010F40E94580A79
:101BB00080919C03811107C094E0988FDF91CF91B1
:101BC0001F910F910895B80182E00E94AA0C888F9E
:101BD000843030F41D870C871A8E198E81E0EECF89
:101BE00080E0ECCF7F928F929F92AF92BF92CF9284
:101BF000DF92EF92FF920F931F93CF93DF9300D06A
:101C0000CDB7DEB7782E8B014A01590122E030E0D2
:101C1000AE014F5F5F4F64E270E00E94810BE9808C
:101C2000FA80FE24EF24FE24E00EF11E97013770A7
:101C300040919C03072D10E0433309F042C0085F38
:101C40001F4F102F0027110F110F110FC901800F07
:101C5000911F4733C9F1A9014A0D5B1D413058401E
:101C600098F160E078E06B01C21AD30AA601B401D2
:101C70000E94B607A5014C195D09B4016C0D7D1DCC
:101C8000C8010E94B607EA0CFB1CF982EA8222E036
:101C900030E0AE014F5F5F4F64E270E0872D0E943D
:101CA00087080F900F90DF91CF911F910F91FF90B8
:101CB000EF90DF90CF90BF90AF909F908F907F90EC
:101CC0000895005F1F4FBDCFA501B401DACFEF9299
:101CD000FF921F93CF93DF9300D0CDB7DEB7182FBD
:101CE00022E030E0AE014F5F5F4F60E270E00E94A3
:101CF000810BE980FA80FE24EF24FE2422E030E00C
:101D0000AE014F5F5F4F60E270E0812F0E94810B58
:101D100089819A81982789279827E816F90689F4F6
:101D200087E0189FF0011124E058FC4FF582E4820F
:101D3000C7010F900F90DF91CF911F91FF90EF900F
:101D400008957C01DBCF1F93CF93DF93182F80E59D
:101D500091E00E94A401812F0E94670EEC0163E0D4
:101D600070E0812F0E941F0A873121F08C3111F021
:101D7000D0E0C0E0CE01DF91CF911F910895CF93C5
:101D8000DF93EC018C85843060F40E94710A873106
:101D900011F08C3131F48C850E94A30E811598408E
:101DA00088F3DF91CF910895FC018485843010F48D
:101DB0000C94A30E90E080E008959F92AF92BF92A2
:101DC000CF92DF92EF92FF920F931F93CF93DF9307
:101DD0008C015B01942EE52EFC01C688D788F08C1F
:101DE00080E591E00E94A4018F2D0E94670EC92D0D
:101DF000DE2D8C179D0708F4EC019E01A501B601AC
:101E00008F2D0E94F20DF801868997898C0F9D1FF6
:101E1000978B868BCE01DF91CF911F910F91FF9011
:101E2000EF90DF90CF90BF90AF909F9008958F92EA
:101E30009F92AF92BF92CF92DF92EF92FF920F9359
:101E40001F93CF936C015B018A01FC01C485C430F0
:101E5000F0F57A014130584018F0E12C88E0F82E76
:101E600080E591E00E94A4018C2F0E94670E4C0136
:101E700063E070E08C2F0E941F0A873111F08C31D3
:101E800049F58E149F0460F380E591E00E94A4015F
:101E90009701A50170E060E08C2F0E94F20D60E2D6
:101EA00070E08C2F0E943C0A62E070E08C2F0E9450
:101EB0001F0A84FD17C063E070E08C2F0E941F0A88
:101EC00081110BC081E090E0F6019383828310E0E2
:101ED00000E010C0F12CE12CD7CF80E591E00E940A
:101EE000A401E2CF40E162E070E08C2F0E94C208C2
:101EF000EF2841F3C801CF911F910F91FF90EF9010
:101F0000DF90CF90BF90AF909F908F900895FF92F9
:101F10000F931F93CF93DF9300D0CDB7DEB7F82E8A
:101F200022E030E0AE014F5F5F4F66E270E00E945A
:101F3000810B09811A8110270127102722E030E048
:101F4000AE014F5F5F4F66E270E08F2D0E94810B04
:101F500089819A819827892798270817190749F4B2
:101F6000C8010F900F90DF91CF911F910F91FF90BB
:101F700008958C01E3CF1F93CF93DF93182F87E051
:101F8000189FE0011124C058DC4F88819981009787
:101F900061F480E591E00E94A401812F0E94870FE7
:101FA0002E81821B910999838883DF91CF911F91A4
:101FB0000895FC018485843010F40C94BB0F90E0EC
:101FC00080E008954F925F927F928F929F92AF929E
:101FD000BF92CF92DF92EF92FF920F931F93CF9316
:101FE000DF9300D0CDB7DEB7782E6B014A01A82E63
:101FF000B12C27E0829FC0011124FC01E058FC4F66
:102000007F010081118180E591E00E94A401081503
:10201000190554F4872D0E94870FF70126818C0142
:10202000021B1109118300830115110529F563E0D5
:1020300070E0872D0E941F0A843159F0882349F0EF
:1020400001E010E08C3111F410E000E011950195F1
:102050001109C8010F900F90DF91CF911F910F913F
:10206000FF90EF90DF90CF90BF90AF909F908F90B8
:102070007F905F904F900895801691060CF4840134
:1020800087E08A9DF0018B9DF00D1124E058FC4FF4
:10209000E280F380C114D10451F12701F7E05F22FF
:1020A000872D0E947908840D951D20919C0327336C
:1020B00009F453C09801240D351D2130384008F42F
:1020C0004CC020E038E0490184189508A401B6010D
:1020D0000E9494092601480C591C6801C818D908A7
:1020E000872D0E947908A601B2010E949409E00E92
:1020F000F11E87E08A9DF0018B9DF00D1124E058C0
:10210000FC4FF382E28220813181201B310B31832D
:1021100020838681800F912F911D8A3F910510F4B5
:10212000232BF1F487E08A9DF0018B9DF00D1124A3
:10213000E058FC4F1682F982EA8222E030E0AE01DC
:102140004F5F5F4F68E270E0872D0E94870860E470
:1021500070E0872D0E943C0A7CCFA801B601C5CF54
:10216000868377CFCF93DF93FC01218D328D2115AC
:10217000310529F48FEF9FEFDF91CF910895EC01A6
:10218000808D4217530708F0A9010E94E20F18162C
:10219000190684F7298D3A8D281B390B3A8F298F20
:1021A000EBCF0F931F93CF93DF931F92CDB7DEB783
:1021B000FC01218D328D232B41F48FEF9FEF0F9087
:1021C000DF91CF911F910F9108958C0141E050E074
:1021D000BE016F5F7F4FFC01808D0E94E20F1816D9
:1021E00019065CF7F801818D928D0197928F818F8E
:1021F000898190E0E4CFCF93DF931F92CDB7DEB714
:1022000041E050E0BE016F5F7F4FFC0184850E947A
:10221000E20F1816190634F4898190E00F90DF91CF
:10222000CF9108958FEF9FEFF9CFFC018485843023
:1022300010F40C94E20F90E080E008950F931F9348
:10224000CF93DF9300D0CDB7DEB7FC0124852430D7
:10225000E0F48C0180E591E00E94A40122E030E0EE
:10226000AE014F5F5F4F60E170E0F80184850E942E
:10227000810B89819A819827892798270F900F9041
:10228000DF91CF911F910F91089590E080E0F6CFFC
:102290000F931F93CF93DF9300D0CDB7DEB7FC0130
:1022A00024852430E0F48C0180E591E00E94A401B3
:1022B00022E030E0AE014F5F5F4F64E070E0F80174
:1022C00084850E94810B89819A8198278927982784
:1022D0000F900F90DF91CF911F910F91089590E093
:1022E00080E0F6CFDC018DE991E08D939D9384E051
:1022F000FB0101900D928A95E1F70895EF92FF920C
:102300000F931F93CF93DF9300D000D0CDB7DEB7EC
:102310008C017B01FB0184858430A8F08DE991E07C
:10232000F801918380831282138214821582C8017E
:102330000F900F900F900F90DF91CF911F910F9101
:10234000FF90EF90089580E591E00E94A40124E0C1
:1023500030E0AE014F5F5F4F6CE070E0F7018485C5
:102360000E94810BBE016F5F7F4FC8010E947211F6
:10237000DECF0F931F93CF93DF93CDB7DEB72897B0
:102380000FB6F894DEBF0FBECDBF8C01D8015996B1
:102390004D915C915A974115510551F0ED91FC9189
:1023A000048CF58DE02D70E060E0C8010995EECF5A
:1023B000F801808D0E94BB0F892BB1F148E050E0FD
:1023C000BE016F5F7F4FD80158968C910E94E20F3B
:1023D00018161906F4F4D801509684E0FE013196DF
:1023E00001900D928A95E1F78D8190E0982F8827D2
:1023F0002E81820F911DF801958B848B8F81282F60
:1024000030E0322F22278885820F932F911D928FE3
:10241000818F28960FB6F894DEBF0FBECDBFDF9137
:10242000CF911F910F91089590E080E0F2CF4F92ED
:102430005F926F927F928F929F92AF92BF92CF9254
:10244000DF92EF92FF920F931F93CF93DF93CDB75D
:10245000DEB763970FB6F894DEBF0FBECDBF7C0129
:102460006B013A01FB0120E090E080E06AE03191ED
:10247000332309F461C040ED430F4A3008F04DC0EA
:10248000689FA001699F500D1124CA01C097830F56
:10249000911D37FD9A958F3F910549F340F3F70160
:1024A000428153816481758180916C0490916D04A7
:1024B000A0916E04B0916F04481759076A077B0713
:1024C00009F40DC28701085F1F4F0E94D1026F708F
:1024D00077277C5FC8010E94CD0D813009F004C2CE
:1024E0008DE991E09A838983F70182819381A481A8
:1024F000B5818B839C83AD83BE8345E350E0BE01F1
:102500006F5F7F4FC8010E941F09892BA9F5D12C4D
:10251000C12CC8010E94640A17C03E3209F0BFCF27
:10252000233009F4BCCFD301A20FB11D12968C93B6
:102530002F5F90E080E09BCF233009F0B0CFF30114
:102540008583CC24C394D12CC60163960FB6F8942E
:10255000DEBF0FBECDBFDF91CF911F910F91FF90D6
:10256000EF90DF90CF90BF90AF909F908F907F9033
:102570006F905F904F9008950E94D102F70177838A
:10258000668342E050E0B7016A5F7F4FC8010E9456
:10259000DD0E81E090E09A83898342E050E0BE0145
:1025A0006F5F7F4FC8010E94DD0E80E091E09A834B
:1025B000898342E050E0BE016F5F7F4FC8010E94F7
:1025C000DD0E1A82198242E050E0BE016F5F7F4F3C
:1025D000C8010E94DD0E42E050E0BE016F5F7F4FF8
:1025E000C8010E94DD0E42E050E0BE016F5F7F4FE8
:1025F000C8010E94DD0E5601F6018081882301F199
:102600006501F60181912F01882311F08E32B1F41A
:1026100046018A189B081814190474F48D8641E049
:1026200050E0BE01635F7F4FC8010E94DD0EA40130
:10263000B501C8010E94DD0E5201DECF6201E1CF7B
:102640001D8641E050E0BE01635F7F4FC8010E94DC
:10265000DD0EC12CDD24D394DA82C98242E050E041
:10266000BE016F5F7F4FC8010E94DD0EDA82C98212
:1026700042E050E0BE016F5F7F4FC8010E94DD0E57
:10268000C8010E94D80A892B09F441CFF3E0AF2E8C
:10269000B12C230122E0420E511CD4C0F70142812B
:1026A000538164817581808D918DA28DB38D481782
:1026B00059076A077B0709F008C1848D958DC59776
:1026C00009F003C181A192A15DEFC52EDD24DA944A
:1026D0000C970CF4ADC04CE050E0BE016F5F7F4F33
:1026E000C8010E94B2108B819C8198278927982766
:1026F0009A8B898BF7014681578129813A8142174C
:10270000530709F0E7C097FFE5C08F7092703BEF69
:10271000C32EDD24DA94892B09F08AC06F80788477
:102720007624672476242AEFC22EDD24DA946114FD
:10273000710409F47DC0D12CC12C8D819E81982714
:1027400089279827C816D906F8F441E050E0BE0161
:10275000635F7F4FC8010E94B2104D85442331F062
:1027600050E070E060E0C8010E94B2108D858111D8
:10277000ECCF44E050E070E060E0C8010E94B2108D
:10278000FFEFCF1ADF0AD9CF912C812C41E050E026
:10279000BE016D5E7F4FC8010E94B2104B89842F2D
:1027A000807C09F06CC0442331F050E070E060E0C0
:1027B000C8010E94B2108B898111E8CF42E050E03D
:1027C000BE01615F7F4FC8010E94B21042E050E03D
:1027D000BE01635F7F4FC8010E94B21044E050E029
:1027E00070E060E0C8010E94B21042E050E0BE011B
:1027F0006F5E7F4FC8010E94B2108F85988949890A
:102800005A898115914009F043C0CD84DE84DC24CF
:10281000CD24DC2481E0C816D104D1F54115544003
:1028200009F04AC044E050E0B201C8010E94B21071
:1028300021E0A21AB10809F46CCEFFEFCF16DF0633
:1028400009F067CE0E94D1023B014C01C8010E94F1
:10285000B911181619060CF421CF0E94D10266197D
:10286000770988099909693873418105910548F507
:1028700062E370E080E090E00E949F02E7CF41E0D9
:1028800050E070E060E0C8010E94B2101B8A93CF54
:1028900054274527542770E060E0C8010E94B21019
:1028A000FFEF8F1A9F0A6814790409F06FCF96EF33
:1028B000C92EDD24DA94BCCFE7EFCE2EDD24DA94E6
:1028C000B7CFCC24CA94DC2CB3CF6EEFC62EDD2458
:1028D000DA94AECF4CEFC42EDD24DA94A9CF8EEF7C
:1028E000C82EDD24DA9430CED12CC12C2DCECF923F
:1028F000DF92EF92FF920F931F93CF93DF93CDB7A9
:10290000DEB7AF970FB6F894DEBF0FBECDBF7C0128
:102910006A010DE911E01A8309831C861B8688EE83
:1029200093E0A0E0B0E08D879E87AF87B88B83E20D
:1029300091E09A878987188F0F8B198E1A8E1B8EBC
:102940001C8E84E089A31BA70AA71CA61DA61EA691
:102950001FA68091600490916104A0916204B091DF
:1029600063048EA39FA3A8A7B9A78B839C83AD8381
:10297000BE8318861F82AE01465D5F4FCE01019671
:102980000E94171281309105B1F4D701ED91FC91AD
:102990000488F589E02D1DA30CA38CA59DA5AEA5EB
:1029A000BFA58EA39FA3A8A7B9A7A601BE016C5D72
:1029B0007F4FC7010995AF960FB6F894DEBF0FBEE3
:1029C000CDBFDF91CF911F910F91FF90EF90DF90DE
:1029D000CF900895CF92DF92EF92FF920F931F93C3
:1029E000CF93DF93CDB7DEB7AF970FB6F894DEBFC6
:1029F0000FBECDBF8C016B017A018DE991E09A8306
:102A000089831B821C821D821E821C861B8648EEC7
:102A100053E060E070E04D875E876F87788B23E23C
:102A200031E03A872987988F8F8B198E1A8E1B8EEB
:102A30001C8E24E029A39BA78AA71CA61DA61EA660
:102A40001FA6D8011C968C91843060F40E94710AF4
:102A5000882321F0F80184850E944C0A84E0D80183
:102A60001C968C938091600490916104A091620403
:102A7000B09163048EA39FA3A8A7B9A78B839C835F
:102A8000AD83BE8318861F82AE01465D5F4FB601DF
:102A9000CE0101960E9417120097C1F0D801ED9166
:102AA000FC910684F785E02D8DE991E09DA38CA330
:102AB0008CA59DA5AEA5BFA58EA39FA3A8A7B9A7CA
:102AC000A701BE016C5D7F4FC8010995AF960FB697
:102AD000F894DEBF0FBECDBFDF91CF911F910F9154
:102AE000FF90EF90DF90CF900895FB0101900020C0
:102AF000E9F73197AF01461B570BDC01ED91FC91D3
:102B00000280F381E02D09948F929F92AF92BF9241
:102B1000EF92FF920F931F93CF93DF93CDB7DEB762
:102B2000A1970FB6F894DEBF0FBECDBF7C01FA01AE
:102B3000CB0119A2223008F42AE08E010F5D1F4F4D
:102B4000822E912CB12CA12CBF01A50194010E94D1
:102B5000A02BF901CA016A300CF5605DD8016E93B3
:102B60008D01232B242B252B79F790E080E0109703
:102B700021F0BD01C7010E947515A1960FB6F8940A
:102B8000DEBF0FBECDBFDF91CF911F910F91FF90A0
:102B9000EF90BF90AF909F908F900895695CDECFCB
:102BA0008F929F92AF92BF92CF92DF92EF92FF925D
:102BB0000F931F93CF93DF937C01EB016C0182E0B5
:102BC000C80ED11C4701E5E08E0E911C10E000E01C
:102BD000F60141916F0150E070E060E02AE0CE0123
:102BE0000E9484155C01E881F9810190F081E02D5B
:102BF0006EE2CE0109958A0D9B1D080F191FC8149E
:102C0000D90431F7F701458150E070E060E02AE037
:102C1000CE010E948415800F911FDF91CF911F91EB
:102C20000F91FF90EF90DF90CF90BF90AF909F906B
:102C30008F900895CF92DF92EF92FF920F931F93A0
:102C4000CF93DF93CDB7DEB728970FB6F894DEBFEA
:102C50000FBECDBF0091610310916203C8010E94B5
:102C6000F004811112C1D80114968D919C91DC0160
:102C7000ED91FC910688F789E02D0995882309F4E8
:102C800050C081E090E0F8019787868787E0E8E10F
:102C9000F1E0DE01119601900D928A95E1F7FE01B7
:102CA000319685E090E02191D80116964D915C9186
:102CB000DA01A80FB91F2C9301968C30910599F772
:102CC000D8011696ED91FC91179782E884871696A5
:102CD000ED91FC9117971B968C911B978587169603
:102CE000ED91FC9117971A968C911A9786871896F2
:102CF000ED90FC90B7018FE991E00E945226419639
:102D0000F801E816F90608F041C084819581DC01DC
:102D1000ED91FC910488F589E02D09956BEC71E04B
:102D2000B6C0D80191966D917C91929714968D9131
:102D30009C91DC01ED91FC91D80193964D915C91B1
:102D400094976115710569F00088F189E02D099566
:102D5000019709F496CF8EEF9FEFF80190A787A314
:102D6000DDCF0684F785E02D2DE931E03A83298314
:102D70005D96CD90DD90ED90FC909097CB82DC82BB
:102D8000ED82FE82BE016F5F7F4FE1CF668177816A
:102D90004FE050E08FE991E00E9482017C01D80170
:102DA0001896CD90DC90B60189EA91E00E945226F7
:102DB0008E0D9F1D0296F801C816D90608F4A5CFFE
:102DC00066817781A70189EA91E00E9482019C01D6
:102DD00025503109D80116964D915C9160E1C801EA
:102DE0000E9425050E94D102F801608B718B828BB5
:102DF000938B648B758B868B978BF801848195817F
:102E0000DC01ED91FC910084F185E02D0995892B81
:102E1000F9F40E94D102F801C488D588E688F788C1
:102E20009B01AC012C193D094E095F0969017A012A
:102E300024853585A8EEB3E00E94C22BC616D706BE
:102E4000E806F906D0F28CEF9FEF90A787A35DCF3D
:102E5000BE01685F7F4FC8010E940E066430710595
:102E60008105910591F5D8011696ED91FC91179782
:102E70008381811125C00E94D102F801648B758B7A
:102E8000868B978B108E10A617A26EEB71E08DE9E2
:102E900093E00E94751568EC71E08DE993E00E9463
:102EA000751528960FB6F894DEBF0FBECDBFDF9123
:102EB000CF911F910F91FF90EF90DF90CF900895E9
:102EC00090E098969C938E939797F8011ECF3F922F
:102ED0004F925F926F927F928F929F92AF92BF922A
:102EE000CF92DF92EF92FF920F931F93CF93DF93D6
:102EF000CDB7DEB7EA970FB6F894DEBF0FBECDBFF1
:102F00007C012A013B0169010E94D1024B015C0155
:102F100087010D5B1F4FC8010E94B91118161906D1
:102F20009CF00E94D102681979098A099B0946160A
:102F300057066806790608F466C162E370E080E02F
:102F400090E00E949F02E7CF42E250E0BE016F5F37
:102F50007F4FC8010E94B21089818230D1F0312C9C
:102F6000832DEA960FB6F894DEBF0FBECDBFDF917A
:102F7000CF911F910F91FF90EF90DF90CF90BF9076
:102F8000AF909F908F907F906F905F904F903F9009
:102F90000895F801848995898334910501F76D813D
:102FA0007E818F8198850E949D2D4B015C01F601E9
:102FB00080829182A282B38246E050E0B701685FCE
:102FC0007F4FCE014D960E94CF2E892B41F6F701FF
:102FD00080819181A281B38188169906AA06BB06D9
:102FE00008F4BDCF84819581A681B78188159905A4
:102FF000AA05BB0508F4B3CF89899A89AB89BC8936
:1030000086879787A08BB18B4EEC50E070E060E034
:10301000C8010E94B210312CC701829698AB8FA7CD
:10302000F701B696FAABE9AB08969CAB8BAB6701A0
:103030009AE1C90ED11CBD96FEABEDABC70142961D
:1030400098AF8FABFD97FAAFE9AF4701FEE18F0E66
:10305000911CF801818D928D181619060CF080CF05
:10306000C8010E94D1108333910509F4B2C014F550
:103070008130910509F464C044F4892B51F3C801EF
:103080000E94D110AC01552775C08330910509F419
:1030900062C00697A1F7C8010E94D110B82E44E083
:1030A00050E0B401C8010E94B210EB2DE450FF0BB8
:1030B000AF0160C08A33910509F45FC084F58533A0
:1030C0009105B1F1C697D9F6C8010E94D1105C01F3
:1030D000B601CE0189960E9472118BA59CA5ADA563
:1030E000BEA5892B8A2B8B2BB1F0EDA9FEA94080C0
:1030F000518062807380B601CE0183960E94721166
:103100008DA19EA1AFA1B8A5A501481659066A06D2
:103110007B0609F0B8CF44E050E0B60118C08B330D
:10312000910509F440C08F3F910509F492CFA7CFD4
:10313000C8010E94D110C8010E94D110382E89CF39
:10314000C8010E94D11044E050E06FA978ADC801D9
:103150000E94B2107ECFC8010E94D110B82E44E068
:1031600050E069AD7AADC8010E94B2108B2D845039
:10317000990BAC0170E060E0EACFC8010E94D11069
:1031800044E050E069A97AA9C8010E94B210F70191
:1031900066A177A180A591A50E949D2D66A377A326
:1031A00080A791A756CFC8010E94D11044E050E0FB
:1031B0006BA97CA9C8010E94B210F70162A573A592
:1031C00084A595A50E949D2D62A773A784A795A7A6
:1031D00040CFC8010E94D11044E050E06FA578A90B
:1031E000C8010E94B210F70162A173A184A195A148
:1031F0000E949D2D62A373A384A395A366A777A7BE
:1032000080AB91AB26CF33243A94AACE7F928F9293
:103210009F92AF92BF92CF92DF92EF92FF920F9365
:103220001F93CF93DF93CDB7DEB7A6970FB6F89471
:10323000DEBF0FBECDBF8C01762E942E852E20E2F0
:10324000A22ECE0101967C01DC01EA2D1D92EA95A9
:10325000E9F76801F3E4CF0ED11C8DE991E09AA360
:1032600089A38FEF8BA38CA38DA38EA343E450E09F
:10327000BE016F5D7F4FC6010E941F09019609F4D0
:10328000BFC081E089838A8386E0B82EBB821C821E
:10329000D80114966D917D918D919C9117970E9404
:1032A0009D2D6D837E838F83988789869A8680E89B
:1032B00090E09C878B874CE150E0B701C6010E94EB
:1032C000DD0EFE0137968AE1DF011D928A95E9F74E
:1032D0004801B8E08B0E911CF401D70101900D92CA
:1032E000BA94E1F740E150E0B701C6010E94DD0E5B
:1032F000F7011192AA94E9F796E0A92EB12C40E2C9
:1033000050E0B701C6010E94DD0EF1E0AF1AB1082E
:10331000B1F783E6898392E89A8393E59B838C8354
:1033200085E38D8381E08E837F829DE3988797E09C
:1033300099878A8786E0F401DE011B9601900D9241
:103340008A95E1F78CE0898B8A8B67ED71E0CE017D
:1033500043960E94F52ED8011B966C91CE0149969A
:103360000E94A701F8016485CE014B960E94A70137
:10337000D8011D966C91CE014D960E94A7014EE199
:1033800050E0B701C6010E94DD0EB3E07B121EC003
:1033900082E3898384E08A83F80196859B839785FD
:1033A0009C8390899D8391899E8396E39F838887E0
:1033B000828D8987838D8A87848D8B87858D8C8785
:1033C0004CE050E0B701C6010E94DD0E87E389831F
:1033D00086E08A8391E09B8393E09C838D838FE0DA
:1033E0008E838AE38F838BE388878FEF898749E019
:1033F00050E0B701C6010E94DD0EC6010E94D80A46
:10340000A6960FB6F894DEBF0FBECDBFDF91CF9169
:103410001F910F91FF90EF90DF90CF90BF90AF90F2
:103420009F908F907F9008952F923F924F925F923E
:103430006F927F928F929F92AF92BF92CF92DF92C4
:10344000EF92FF920F931F93CF93DF9300D000D0A2
:1034500000D0CDB7DEB78C010E94FA252FEC37E003
:1034600040E050E00E94372BDC01CB010196A11D0A
:10347000B11DF80184839583A683B78380839183EC
:10348000A283B3835801F3E4AF0EB11CC5010E94BF
:10349000640A64E470E0C5010E94CD0D882309F43C
:1034A00045C10E94D1022B013C01480182E4880EF3
:1034B000911C48EEC42E43E0D42EE12CF12C52E0B6
:1034C000252E1E821D82D4018C918330B1F1811191
:1034D00066C0F80184819581A681B7810196A11DFE
:1034E000B11D84839583A683B7830E94D10264199A
:1034F000750986099709A70196010E94A02BA901C9
:1035000061E0C8010E94061981E0D4018C938D818D
:103510009E810197C1F20E94D10264197509860942
:103520009709D801D6962D913D914D915C91D997EF
:10353000261737074807590720F6C5010E94640A75
:10354000F80184819581A681B7810196A11DB11DE5
:1035500084839583A683B7830E94D102F801FE96E7
:1035600060837183828393838D819E8126960FB6BB
:10357000F894DEBF0FBECDBFDF91CF911F910F91A9
:10358000FF90EF90DF90CF90BF90AF909F908F9083
:103590007F906F905F904F903F902F900895843070
:1035A000F1F4F80184819581A681B7810196A11D6E
:1035B000B11D84839583A683B7830E94D1026419C9
:1035C000750986099709A70196010E94A02BA901F8
:1035D00063E0C8010E940619D4012C9298CF813073
:1035E00051F5F80142AD53AD64AD75AD9E012F5F4D
:1035F0003F4FC8010E946717382EF2E08F1390C02A
:1036000089819A81AB81BC81F80184839583A683EB
:10361000B7830E94D1026419750986099709A70129
:1036200096010E94A02BA90163E0C8010E9406191F
:10363000D4013C926CCF823009F069CFF80142ADE1
:1036400053AD64AD75AD9E012F5F3F4FC8010E9421
:103650006717382EF5E08F135DC0E3E0D401EC93DB
:10366000F80182A193A1A4A1B5A1892B8A2B8B2B50
:1036700041F484E893E0A0E0B0E082A393A3A4A384
:10368000B5A3F80186A197A1A0A5B1A5892B8A2B86
:103690008B2B61F482A193A1A4A1B5A1B695A795A6
:1036A0009795879586A397A3A0A7B1A7F80182A5B0
:1036B00093A5A4A5B5A5892B8A2B8B2BA9F482A150
:1036C00093A1A4A1B5A1AC01BD0123E076956795B6
:1036D000579547952A95D1F7841B950BA60BB70BE9
:1036E00082A793A7A4A7B5A7F80186A197A1A0A533
:1036F000B1A586A797A7A0ABB1AB82A593A5A4A5BA
:10370000B5A582AB93ABA4ABB5AB81E090E09E8353
:103710008D83FDCE96E0891303C0D4011C92F7CEB1
:10372000BFEF3B12F4CEF4011082F1CE1E821D8257
:103730001BCF0C94462E2F923F924F925F926F9226
:103740007F928F929F92AF92BF92CF92DF92EF9231
:10375000FF920F931F93CF93DF9300D000D000D040
:103760001F92CDB7DEB700913002109131020115E2
:10377000110509F4D0C00E94D1024B015C0178010F
:103780002EE3E20EF11CF70180819181A281B381C9
:10379000A5019401281B390B4A0B5B0BCA01B90127
:1037A000683E33E0730781059105A0F128EE33E010
:1037B00040E050E00E94A02B861A970AA80AB90A96
:1037C000D7018D929D92AD92BC921397F80186A578
:1037D00097A5A0A9B1A969017A01CC0CDD1CEE1C4A
:1037E000FF1C8C159D05AE05BF0508F004C116A68B
:1037F00017A610AA11AAF80182A993A9A4A9B5A98C
:103800008C159D05AE05BF0508F0FEC012AA13AACF
:1038100014AA15AAF80186A597A5A0A9B1A9892B74
:103820008A2B8B2B09F0F9C0EE5BFF4F8081833030
:1038300009F0F3C084E08083C8010E94141A019645
:10384000D801D2964D915D916D917C91D597452B84
:10385000462B472BA1F4F801EE5BFF4F208123306C
:1038600011F021110CC01082F8013E9684E1DF01B5
:103870001D928A95E9F7C8010E94141A03968230B6
:10388000910519F0049709F046C080E591E00E9487
:10389000A4010091300210913102B801625F7F4FA4
:1038A000CE0101960E947211CE0103960E94170963
:1038B000B8016A5E7F4FCE0101960E94721144E00A
:1038C00050E0BE016D5F7F4F81E090E00E94B6073F
:1038D000B8016E5E7F4FCE0101960E94721144E0E6
:1038E00050E0BE016D5F7F4F85E090E00E94B6071B
:1038F000B801625E7F4FCE0101960E9472118B81EA
:103900009C81AD81BE818093600490936104A093FB
:103910006204B093630480916103909162030E94FA
:10392000F004882309F489C10091610310916203B6
:10393000C8010E94F004882309F444C00E94D10207
:103940004B015C01F80122853385A8EEB3E00E94AB
:10395000C22BC488D588E688F788A50194012C1964
:103960003D094E095F0969017A016C157D058E05D7
:103970009F0590F0C088D188E288F388A501940162
:103980002C193D094E095F0969017A016C157D0505
:103990008E059F0508F06AC0D80158968C915897FB
:1039A0008823F1F18CEF9FEF98969C938E939797D5
:1039B00014968D919C91DC01ED91FC910488F58920
:1039C000E02D099527960FB6F894DEBF0FBECDBF48
:1039D000DF91CF911F910F91FF90EF90DF90CF90EB
:1039E000BF90AF909F908F907F906F905F904F901F
:1039F0003F902F900895821B930BA40BB50B86A7C5
:103A000097A7A0ABB1ABF7CE821B930BA40BB50B62
:103A100082AB93ABA4ABB5ABFDCE90E080E010CF12
:103A20001696ED91FC91179780EC80831696ED9198
:103A3000FC911797118214968D919C91159716966B
:103A40006D917C91DC01ED91FC910280F381E02D80
:103A500042E050E00995F801808A918AA28AB38AEF
:103A6000848A958AA68AB78A81E0808FF80184814A
:103A70009581DC01ED91FC910084F185E02D0995A3
:103A8000892B09F49FCFBE016F5F7F4FC8010E9451
:103A90000E062B01672B09F4CCC0F801848A958AA5
:103AA000A68AB78A0680F781E02D8081807F8033E7
:103AB00009F09EC0D80159968D919C91892B09F4EB
:103AC00081CF498150E0CA0102968E0F9F1FDF010E
:103AD000A40FB51F1196EC90F12CFE2CEE24DC0106
:103AE0006C91E60EF11C4D5F5F4FBF01640F751FB7
:103AF000A7010E94DC2EE981D80116968D919C9138
:103B000017978E0D9F1DE80FF92FF11D1282169643
:103B1000ED91FC911797298130E0C90102968E0F33
:103B20009F1F408146704F835996CD90DC90423064
:103B300009F04CC0B701620F731FDF01A60FB71F5A
:103B400013964C91139750E0542F442714962C90C1
:103B5000240E352E311C4BEF5FEF421B530B4E19D9
:103B60005F09440D551D6B5F7F4F6E0F7F1FF60180
:103B70000995D8011696ED91FC91179780E4808302
:103B80001696ED91FC911797CF80C1821696ED9114
:103B9000FC91179732821696ED91FC91179723822C
:103BA00014968D919C91159716966D917C91DC01E0
:103BB000ED91FC910280F381E02D44E050E0099505
:103BC000F801808A918AA28AB38AFCCE4DEF5FEF1A
:103BD000421B530B4E195F09440D551D2D5F3F4F7E
:103BE000E20EF31EBF016E0D7F1DF6010995EACEB0
:103BF000803CC9F480ED8083D8011696ED91FC914C
:103C00001797118214968D919C91159716966D9128
:103C10007C91DC01ED91FC910280F381E02D42E08A
:103C200050E00995CFCE803D09F0CCCEF801108E42
:103C3000C9CEC8010E94F004C5CE0E94D1020091F5
:103C400026021091270220912802309129026B014F
:103C50007C01C01AD10AE20AF30A970186010838EA
:103C600013412105310508F4ADCE6093260270930F
:103C7000270280932802909329020E941A16A2CE4E
:103C80001F920F920FB60F9211242F933F938F9391
:103C90009F93AF93BF938091780390917903A09104
:103CA0007A03B0917B033091770323E0230F2D3704
:103CB00058F50196A11DB11D2093770380937803D9
:103CC00090937903A0937A03B0937B0380917C0354
:103CD00090917D03A0917E03B0917F030196A11D79
:103CE000B11D80937C0390937D03A0937E03B093DA
:103CF0007F03BF91AF919F918F913F912F910F9033
:103D00000FBE0F901F90189526E8230F0296A11D55
:103D1000B11DD2CF1F920F920FB60F9211242F9385
:103D20003F934F935F936F937F938F939F93AF9343
:103D3000BF93EF93FF938DE993E00E946104FF919D
:103D4000EF91BF91AF919F918F917F916F915F9113
:103D50004F913F912F910F900FBE0F901F9018958C
:103D60001F920F920FB60F9211242F938F939F9350
:103D7000EF93FF93E091AD03F091AE038081E0916A
:103D8000B303F091B40382FD1BC090818091B60310
:103D90008F5F8F732091B703821741F0E091B603D4
:103DA000F0E0E356FC4F958F8093B603FF91EF91BF
:103DB0009F918F912F910F900FBE0F901F9018958C
:103DC0008081F4CF0F931F93CF93DF93EDE9F3E05E
:103DD0001382128288EE93E0A0E0B0E084839583A2
:103DE000A683B7832DE431E03183208325EC30E0D6
:103DF0003587248724EC30E03787268720EC30E0B5
:103E0000318B208B21EC30E0338B228B22EC30E0A5
:103E1000358B248B26EC30E0378B268B118E128E5F
:103E2000138E148EEAE3F4E0CDE9D1E0D183C083B0
:103E30001282138214821582E0E4F4E0D183C083FD
:103E40001282138214821582E6E4F4E0D183C083E7
:103E50001282138214821582ECE4F4E0D183C083D1
:103E60001282138214821582E2E5F4E0D183C083CA
:103E70001282138214821582E8E5F4E0D183C083B4
:103E80001282138214821582E4E6F4E0D183C083A7
:103E90001282138214821582EEE5F4E0D183C0838E
:103EA0001282138214821582EAE6F4E0D183C08381
:103EB0001282138214821582E0E7F4E0D183C0837A
:103EC0001282138214821582E6E7F4E0D183C08364
:103ED0001282138214821582ECE7F4E0D183C0834E
:103EE0001282138214821582EAEBF4E0D183C0833C
:103EF0001282138214821582EBEAF4E0138212829A
:103F000084839583A683B7838BE691E09183808336
:103F100084E0848788EE93E09687858702E814E042
:103F2000D80113961C921E9212978FE591E011967C
:103F30009C938E935C96DC93CE935B975D961D92DB
:103F40001D921D921C9290978FEF9FEF98969C93D5
:103F50008E9397971596FC93EE93149796961C92D2
:103F60001E92959780E091E00E94AA2DF801978318
:103F7000868380E091E0918780878FE090E093874F
:103F8000828795878487E0ECF4E0D183C083128236
:103F9000138214821582A6ECB4E082E015968C930D
:103FA000159786E116968C931697EAE2F2E0E49173
:103FB0001796EC931797E6E1F2E0E4911896EC93EC
:103FC000189740E85EE360E070E01D964D935D93C6
:103FD0006D937C935097DF91CF911F910F9108952E
:103FE000CF93DF93CDB7DEB76B970FB6F894DEBFF4
:103FF0000FBECDBF789484B5826084BD84B58160E6
:1040000084BD85B5826085BD85B5816085BD8091A3
:104010006E00816080936E0010928100809181001B
:104020008260809381008091810081608093810013
:10403000809180008160809380008091B1008460D5
:104040008093B1008091B00081608093B000809136
:104050007A00846080937A0080917A0082608093F5
:104060007A0080917A00816080937A0080917A0052
:10407000806880937A001092C100E091AD03F091C6
:10408000AE0382E08083E091A903F091AA0310823D
:10409000E091AB03F091AC038FEC80831092B503F9
:1040A000E091B103F091B20386E08083E091AF0329
:1040B000F091B003808180618083E091AF03F09143
:1040C000B003808188608083E091AF03F091B003FA
:1040D000808180688083E091AF03F091B00380819C
:1040E0008F7D80836EED71E08DE993E00E94751500
:1040F00060E083E00E943E0262E087E00E943E02B0
:1041000062E08091CB040E943E020E94D102605D79
:104110007740810991096093CF047093D004809314
:10412000D1049093D20487E38093D80410926A0359
:1041300010926B0310926C0310926D0310926E0339
:1041400010926F0310927003109271031092720319
:1041500010927303109274031092750310927603F9
:1041600061E088E00E943E0261E085E00E943E023C
:1041700061E086E00E943E0261E084E00E943E022F
:1041800060E085E00E94100260E086E00E943E024E
:1041900060E084E00E943E0288E992E0909364032C
:1041A0008093630388EC8093650382E894E09093A6
:1041B0006203809361038091900281112AC0109262
:1041C00078021092770288EE93E0A0E0B0E080934E
:1041D000790290937A02A0937B02B0937C0283E2EF
:1041E00091E090937602809375028DE991E090932F
:1041F00084028093830210928502109286021092AC
:1042000087021092880284E080938D0281E080937F
:10421000900282E392E09093310280933002809189
:104220002F028111ADC060E372E080E090E00E9457
:104230009F02DFB6F8940EE112E0E2E3EE2EE2E038
:10424000FE2E80912D02811125C0F8018491F70185
:104250009491E82FF0E0EE0FFF1FEE51FE4FA59175
:10426000B4918C91982321F461E08AE00E941002BD
:1042700061E08AE00E943E028CB580618CBD8CB505
:1042800080648CBD61E08DE00E943E0261E08BE0C5
:104290000E943E0280912D028F5F80932D02DFBE2F
:1042A000F8010491E02FF0E0EE0FFF1FE451FE4F04
:1042B0008591949190932C0280932B02F701E490C6
:1042C000E0922A0261E08AE00E943E020E949A0780
:1042D00080E591E00E94A40184E380939C0380E840
:1042E0000E9466080E941C0B882309F4F5C088E030
:1042F0000E9466080E94090B883009F0EDC080E139
:104300000E9466080E94090B803109F0E5C080E038
:104310000E9466080E94090B182F8111DDC041E040
:1043200050E0BE016F5F7F4F8FE190E00E949409E3
:104330008981833009F0D0C080E480932E0242E06E
:104340006EE170E0812F0E94C20842E06FE170E0F0
:10435000812F0E94C2081F5F143089F740E06EE190
:1043600070E0812F0E94C20840E06FE170E0812F71
:104370000E94C2081F5F183089F781E080932F02E6
:1043800080E591E00E94A40146E050E060E071E029
:1043900089E090E00E94B6078DE991E09A838983D5
:1043A0001B821C821D821E82CE0103960E94170969
:1043B0008091300290913102DC0192961D921D9203
:1043C0001D921C929597FC0116A217A210A611A689
:1043D0009A961D921D921D921C929D9740E65AEE50
:1043E00060E070E046AB57AB60AF71AF40EA5FE0B2
:1043F00060E070E0DA964D935D936D937C93DD976A
:104400003E9624E1DF011D922A95E9F726E0E0E0DF
:10441000F1E0DC01189601900D922A95E1F7FC017C
:10442000EE5BFF4F10820E94141A019709F0BDC085
:1044300080E591E00E94A4010091300210913102C8
:10444000B801625F7F4FCE0101960E947211CE01CA
:1044500003960E941709B8016A5E7F4FCE0101964C
:104460000E94721144E050E0BE016D5F7F4F81E019
:1044700090E00E94B607B8016E5E7F4FCE010196B4
:104480000E94721144E050E0BE016D5F7F4F85E0F5
:1044900090E00E94B607B801625E7F4FCE010196A0
:1044A0000E9472118B819C81AD81BE8180936004DA
:1044B00090936104A0936204B09363040E947A0213
:1044C0007F73809106019091070168277927709387
:1044D00007016093060169C087E380939C0380E82D
:1044E0000E9466080E941C0B882329F188E00E9424
:1044F00066080E94090B8830F1F480E10E9466088A
:104500000E94090B182F8031B1F480E00E946608E8
:104510000E94090B81110FC041E050E0BE016F5FA6
:104520007F4F89E390E00E9494098981843019F4D7
:1045300010932E0222CF83E380939C0380E80E9495
:1045400066080E941C0B882371F180E10E946608B6
:104550000E94090B803139F582E10E9466080E94B1
:10456000090B823101F580E00E9466080E94090B68
:10457000811119C084E080932E0215E51A8B41E069
:1045800050E0BE016E5E7F4F8BE190E00E94B60767
:10459000198B41E050E0BE016F5E7F4F8AE190E0F1
:1045A0000E94B607EACE10929C0360ED77E080E0AF
:1045B00090E00E949F02E0916103F091620381EF1D
:1045C00091E092A381A38BE597E094A383A30E943B
:1045D0001A161E01B9E02B0E311CE8E0F2E0DE2EC7
:1045E0000E949B1B0E949B1B0E94DD02882341F0BE
:1045F0008091CC048C3009F463C048F48B3001F115
:10460000412C512C40EC642E4FE7742E43C0855151
:104610008230B0F71091C804612F70E0762F6627C2
:1046200066277F778091C904682B90E080E00E9424
:10463000742C2DEC3CEC4CEC5DE30E94072D5CC02F
:104640006091C80470E090E080E00E94742C4B01FF
:104650005C011091C90417FF0AC0AC019B0160E026
:1046600070E080E89FEB0E94D12B4B015C011F7032
:10467000612F70E090E080E00E94762C2DEC3CEC05
:104680004CEC5DE30E94072DA50194010E94D22B02
:104690002B013C010E94DD02882309F465C0809152
:1046A000CC048B3030F08D3080F18551823008F4AD
:1046B0008DC1812C912C30ECA32E3FE7B32E43C04B
:1046C0001091C804612F70E090E080E00E94742C8B
:1046D0004B015C016091C9046F7070E090E080E074
:1046E0000E94762C2DEC3CEC4CEC5DE30E94072DF7
:1046F000A50194010E94D22B2B013C0117FFCACFC8
:1047000077FA709477F87094C5CF6091C70470E021
:1047100090E080E00E94762C2DEC3CEC4CEC5DE3CC
:104720000E94072D4B015C016091C60470E090E08F
:1047300080E00E94762C9B01AC01C501B4010E946F
:10474000D22B4B015C01A3019201C301B2010E9473
:10475000742D811109C0A5019401C501B4010E9405
:10476000742D882309F444C140906A0350906B0370
:1047700060906C0370906D0380906E0390906F0357
:10478000A0907003B0907103CC24C39483E00E9486
:10479000E7017C010E94D102EA94EF2809F08EC162
:1047A000EE24E394E092720368517C4F8F4F9F4F49
:1047B00060937303709374038093750390937603EF
:1047C000F0907203FC8A87E00E94E70101E00B8B06
:1047D000892B09F01B8A14E01B8E1A8E20E420938B
:1047E0007C0080917A00806480937A0080917A00C6
:1047F00086FDFCCF8091780090917900EA8CFB8C4B
:10480000E80EF91EFB8EEA8E62E070E080E090E038
:104810000E949F02115011F720E030E04AEA52E472
:10482000C501B4010E94022D87FD0DC08091600377
:10483000811109C0D092600361E0D11001C060E035
:1048400084E00E94100280916103909162030E94B3
:10485000F004882309F451C10E94D102009166033B
:1048600010916703209168033091690378018901F1
:104870009B01AC012E193F09400B510B28383341E5
:104880004105510508F439C1EA8CFB8CF694E79494
:10489000F694E794609366037093670380936803CC
:1048A00090936903109160031D8B810121E041E029
:1048B000C301B2010E9490258E010F5F1F4F21E0BE
:1048C00041E0C501B4010E9490251F92CF921F9232
:1048D0002B892F931F923D893F931F924C894F93B1
:1048E00081E05CE2E51651E0F50608F080E01F92F9
:1048F0008F93FF92EF9281E090E08C0F9D1F9F932A
:104900008F933F922F92A2E6B1E0BF93AF93809135
:1049100065031F928F93809164038F93809163034B
:104920008F930E945D26E0906303F0906403809073
:104930006103909062030FB6F894DEBF0FBECDBF47
:10494000B12CA12CE114F10441F0D40118966D9121
:104950007C91C7010E9452265C01C4010E94F004B0
:10496000882309F4CAC0F40160847184B3018DE026
:1049700092E00E9452269501295F3F4F820F931FBC
:104980006816790608F4B9C0D40116966D917C9129
:1049900045E050E08DE092E00E94820197012A0DEF
:1049A0003B1DF7017C01EE1AFF0AB7016E0F7F1F56
:1049B000D40116964D915C91E217F30709F494C067
:1049C0001191460F571FDA011C93EFCF6091C60477
:1049D0007091C70476276727762790E080E00E94D1
:1049E000742C2DEC3CEC4CEC5DE30E94072DA9CE21
:1049F00020E030E040E251E4C301B2010E94072D03
:104A00002B013C0120E030E0A9010E94022D20E0B2
:104A100030E040E05FE387FD47C0C301B2010E9480
:104A2000D22B0E943E2C0E94762C2DEC3CEC4CECC0
:104A30005DE30E94072D2B013C0120E030E040E2C5
:104A400051E4C501B4010E94072D4B015C0120E037
:104A500030E0A9010E94022D20E030E040E05FE359
:104A600087FD27C0C501B4010E94D22B0E943E2CB5
:104A70000E94762C2DEC3CEC4CEC5DE30E94072D63
:104A80004B015C0140926A0350926B0360926C038D
:104A900070926D0380926E0390926F03A0927003E8
:104AA000B0927103C12C72CEC301B2010E94D12B0E
:104AB000B8CFC501B4010E94D12BD8CF2091720389
:104AC000222309F47DCE0091730310917403209189
:104AD000750330917603601771078207930708F416
:104AE0006FCE109272036CCE950125503109280FBC
:104AF000391F60E3C4010E942505E0E0F0E0EF2BE0
:104B000009F46ECD0E944D04882309F466CD0E94FD
:104B1000000063CD80918804909189040C94462E06
:104B2000EF920F931F93CF93DF93E80134E047FD9B
:104B300034E1042E000C550B57FF03C051954195ED
:104B40005109E32E022F242FAE010E946728CE01C7
:104B5000DF91CF911F910F91EF9008958F929F92C7
:104B6000AF92BF92CF92DF92EF92FF92CF93DF93FB
:104B7000EC01688179818A819B81611571058105CC
:104B8000910521F464E279ED8BE597E02DE133EFB7
:104B900041E050E00E94372B49015A019B01AC01D2
:104BA000A7EAB1E40E94562B6B017C01ACEEB4EF96
:104BB000A50194010E94642BC60ED71EE81EF91EA3
:104BC000F7FE06C081E0C81AD108E10880E8F80ABB
:104BD000C882D982EA82FB82C701B6019F77DF9142
:104BE000CF91FF90EF90DF90CF90BF90AF909F90CC
:104BF0008F9008958F929F92AF92BF92CF92DF9243
:104C0000EF92FF92609108017091090180910A0171
:104C100090910B01611571058105910521F464E204
:104C200079ED8BE597E02DE133EF41E050E00E9414
:104C3000372B49015A019B01AC01A7EAB1E40E945C
:104C4000562B6B017C01ACEEB4EFA50194010E94E0
:104C5000642BC60ED71EE81EF91EF7FE06C081E0C3
:104C6000C81AD108E10880E8F80AC0920801D09279
:104C70000901E0920A01F0920B01C701B6019F778A
:104C8000FF90EF90DF90CF90BF90AF909F908F906C
:104C90000895609308017093090180930A0190932D
:104CA0000B010895FC016150704001900110D8F78C
:104CB000809590958E0F9F1F0895AEE0B0E0E3E6DB
:104CC000F6E20C94772B0D891E898F89988D2EE042
:104CD0002C831A83098397FF02C080E090E8019734
:104CE0009E838D83AE01455E5F4F698D7A8DCE01C7
:104CF00001960E948D264D815E8157FD0AC02F814D
:104D00003885421753070CF49A01020F131FF8015C
:104D100010822E96E4E00C94932BABE0B0E0E3E934
:104D2000F6E20C94692B7C013B018A01FC0117829D
:104D30001682838181FFC8C1CE0101965C01F70113
:104D40009381F30193FD859193FF81913F01882326
:104D500009F453C1853239F493FD859193FF819114
:104D60003F01853229F4B70190E00E94A92AE7CFDC
:104D7000912C212C312CFFE1F31538F08B3211F1FD
:104D800090F4803209F1833229F137FC3CC020EDE8
:104D9000280F2A3050F536FE20C08AE0989E200D5C
:104DA0001124922E06C08D3291F0803371F76894F1
:104DB00030F8F30193FD859193FF81913F018111BB
:104DC000DACF21C0689431F8689432F8F2CF689451
:104DD00033F8EFCF689434F8ECCFEAE02E9E200D44
:104DE0001124222E689435F8E4CF8E3229F436FC53
:104DF00004C1689436F8DDCF8C3619F4689437F81E
:104E0000D8CF8836B1F2982F9F7D95549330E0F03B
:104E10008336A1F18337C1F1833509F063C02801DE
:104E2000F2E04F0E511CF801C080D180692D70E076
:104E300036FC02C06FEF7FEFC6010E949E2A4C0134
:104E4000689437F882010AC00C5F1F4FFFE3F983B3
:104E500088248394912C6501E89437F833FE2DC0A3
:104E6000522C8114910471F5552009F468CFB701D3
:104E700080E290E00E94A92A5A94F6CFF80180813E
:104E800089830E5F1F4FE4CF2801F2E04F0E511CC3
:104E9000F801C080D180692D70E036FC02C06FEF50
:104EA0007FEFC6010E9452264C018201D5CFB70187
:104EB00080E290E00E94A92A2A942814190409F09B
:104EC000B0F7CECFF60137FC859137FE81916F01A7
:104ED000B70190E00E94A92A51105A94F1E08F1A6C
:104EE0009108BFCF843619F0893609F077C0F801F0
:104EF00037FE6BC060817181828193810C5F1F4F8F
:104F0000F32DFF763F2E97FF09C090958095709501
:104F100061957F4F8F4F9F4F689437F82AE030E0BC
:104F2000A5010E94D92AC82ECA188C2C432C36FE03
:104F30000CC0E89440F8C91440F434FE05C032FCBB
:104F400003C0F32DFE7E4F2E892C44FE95C0FE013A
:104F5000EC0DF11D8081803309F087C0242D297E5E
:104F6000422E842D8870582E43FC95C040FE8FC081
:104F70009C2C821418F42C0C922C981844FE91C08E
:104F8000B70180E390E00E94A92A42FE09C088E7A9
:104F900090E041FE02C088E590E0B7010E94A92A96
:104FA000C91408F48AC0CA94D12C9FEFC91AD90A2F
:104FB000CA0CDB1CF60182916F01B70190E00E94E0
:104FC000A92AAC14BD04B1F74FCF60817181072EBF
:104FD000000C880B990B0E5F1F4F92CFD32CE894D7
:104FE000D4F82AE030E0853739F1232D297FD22EFD
:104FF0008F3601F148F48835A9F0F7018681978151
:105000002B96E2E10C94852B803749F08837A9F77D
:10501000D4FE02C06894D2F820E130E00DC068945C
:10502000D4F8F6CF34FE03C0822F8660D82E20E15C
:1050300032E002C028E030E0F801D7FE0FC0608106
:105040007181828193810C5F1F4FA5010E94D92A33
:10505000C82ECA183D2CE89437F867CF608171815B
:1050600090E080E00E5F1F4FF0CF42FC02C08394BF
:1050700078CF8394839475CF842D867809F471CF8B
:10508000F6CFB70180E290E00E94A92A83948214AF
:10509000C0F3512C73CF522C5818821408F46ECFE1
:1050A000F8CF842D867809F47BCF8BE241FE80E235
:1050B00047FC8DE2B70190E071CFB70180E390E04B
:1050C0000E94A92A9A946CCF8FEF9FEF99CFA9E005
:1050D000B0E0EDE6F8E20C946F2B6A01F22EB02EF0
:1050E000102FFBE3AF2EA01608F41BE31F5F012F68
:1050F00027E0AE014F5F5F4F0E94C629BC01898146
:10510000982F9970913009F43FC09BE2E1FC04C0F4
:105110009E2D9170E0FC3AC05E2D5071E82FE87032
:1051200083FF46C084E0911101C083E0EF2DE81BAE
:105130008F1508F0E0E0D6018E2F20E2552351F1C3
:10514000992329F0D6019C93C60101966C01960122
:105150002D5F3F4FE2FE24C08EE4D6018C9391E494
:1051600011969C93119712968C93D9018E2F90E2F1
:1051700081111BC0E20FF32FF11D10828EEF9FEF04
:105180002996ECE00C948B2B9DE2C6CF90E2C4CF25
:105190002D9381508111FCCFCE0ED11CE0E0D0CFF9
:1051A0008EE6D6018C9391E6DBCF9D938150E0CFC4
:1051B000482F447082FF3DC084E0911101C083E01C
:1051C0008F1510F4EF2DE81BD6018E2F20E255230A
:1051D00009F1992329F0D6019C93C60101966C012F
:1051E00096012D5F3F4FE2FE1BC089E4D6018C93F0
:1051F0008EE411968C93119786E412968C93D901C4
:105200008E2F90E2882309F4B5CF9D938150FACF79
:105210002D9381508111FCCFCE0ED11CE0E0D9CF6F
:1052200089E6D6018C938EE611968C93119786E6CB
:10523000E4CF9B0177FF02C030E020E0A1E0B0E0C6
:10524000911102C0B0E0A0E0F9013196AE0FBF1F8E
:105250008B2C912CBB2009F461C05401EFEFAE1AE6
:10526000BE0AAA0DBB1DFA161B0619F014F04F2D2D
:105270004A1B511188C0E3FC59C07601A42FB0E24B
:10528000A1114FC0C40ED11C992309F45BC040E0AA
:10529000D6011196F60190836D01552309F448C09B
:1052A000012F060F9A81582F507184FF03C091334C
:1052B00009F4015010160CF047C0093008F008E05E
:1052C000EEE2FE2E5B01A01AB10885019194819453
:1052D00091082F3F320729F4D601FC92F60131964E
:1052E0006F016217730794F1021713077CF5DB0156
:1052F000A21BB30BAA24A394B12CAC0EBD1EAA0D05
:10530000BB1D11968C9121503109D601119628159B
:105310003905F4F0F60180836D01DBCFB12CA12CAF
:10532000A0CFF701B1937F01A150AACF9111B0CFC7
:10533000D601942F50E302C05D9391509111FCCFA0
:10534000C40ED11C40E0ACCF01E0BACF80E3DBCF8C
:105350006217730731F4963388F4953311F45523AB
:1053600069F0F6018083FD01842F90E2811108C06D
:10537000A40FB11D1C9290E080E002CF81E3F1CF39
:1053800091938150F3CF911183CF8ACF283008F0C9
:1053900027E03327DA01990F311D87FD91600096D0
:1053A0006105710539F432602E5F3D9330E32A9533
:1053B000E1F708959F3F30F080387105610509F0ED
:1053C0003C5F3C5F3D93913008F08068911DDF9316
:1053D000CF931F930F93FF92EF92192F987F96957B
:1053E000E92F96959695E90FFF27EE53FF4F9927E2
:1053F0003327EE24FF24A701E701059008940794C2
:1054000028F4360FE71EF81E491F511D660F771F3F
:10541000881F991F0694A1F70590079428F4E70EBA
:10542000F81E491F561FC11D770F881F991F661F41
:105430000694A1F70590079428F4F80E491F561F0B
:10544000C71FD11D880F991F661F771F0694A1F7EC
:105450000590079420F4490F561FC71FD81F990FB6
:10546000661F771F881F0694A9F7849110951770FF
:1054700041F0D695C79557954795F794E7941A95B7
:10548000C1F7E8E6F0E068941590159135916591C3
:10549000959105907FE27395E118F10A430B560B45
:1054A000C90BD009C0F7E10CF11E431F561FC91FDD
:1054B000D01D7EF4703311F48A95E6CFE894015044
:1054C00030F0080F0AF40027021708F4202F239564
:1054D000022F7A3328F079E37D932A95E9F710C0FB
:1054E0007D932A9589F60694979567953795179534
:1054F0001794E118F10A430B560BC90BD00998F029
:1055000023957E9173957A3308F070E37C93201392
:10551000B8F77E9170617D9330F0839571E37D9350
:1055200070E32A95E1F71124EF90FF900F911F91FE
:10553000CF91DF91992787FD90950895FC01059003
:10554000615070400110D8F7809590958E0F9F1F85
:1055500008950F931F93CF93DF93182F092FEB011B
:105560008B8181FD09C01FEF0FEF812F902FDF91FD
:10557000CF911F910F91089582FF14C02E813F811A
:105580008C819D81281739073CF4E881F981CF018E
:1055900001969983888310838E819F8101969F83D2
:1055A0008E83E3CFE885F985812F0995892BA1F3B7
:1055B000DACFFA01AA27283051F1203181F1E8949D
:1055C0006F936E7F6E5F7F4F8F4F9F4FAF4FB1E0F6
:1055D0003ED0B4E03CD0670F781F891F9A1FA11DF1
:1055E000680F791F8A1F911DA11D6A0F711D811DF2
:1055F000911DA11D20D009F468943F912AE0269FB7
:1056000011243019305D3193DEF6CF010895462F15
:105610004770405D4193B3E00FD0C9F7F6CF462FF6
:105620004F70405D4A3318F0495D31FD405241935F
:1056300002D0A9F7EACFB4E0A6959795879577951C
:105640006795BA95C9F700976105710508959B01A3
:10565000AC010A2E06945795479537952795BA952C
:10566000C9F7620F731F841F951FA01D0895052E93
:1056700097FB1EF400940E944E2B57FD07D00E940A
:10568000A02B07FC03D04EF40C944E2B5095409564
:10569000309521953F4F4F4F5F4F089590958095DE
:1056A000709561957F4F8F4F9F4F08950E94C22B39
:1056B000A59F900DB49F900DA49F800D911D112466
:1056C0000895B7FF0C94562B0E94562B821B930B08
:1056D00008952F923F924F925F926F927F928F9296
:1056E0009F92AF92BF92CF92DF92EF92FF920F9371
:1056F0001F93CF93DF93CDB7DEB7CA1BDB0B0FB67B
:10570000F894DEBF0FBECDBF09942A883988488837
:105710005F846E847D848C849B84AA84B984C884CD
:10572000DF80EE80FD800C811B81AA81B981CE0FC4
:10573000D11D0FB6F894DEBF0FBECDBFED010895A9
:10574000A1E21A2EAA1BBB1BFD010DC0AA1FBB1F85
:10575000EE1FFF1FA217B307E407F50720F0A21BF7
:10576000B30BE40BF50B661F771F881F991F1A9464
:1057700069F760957095809590959B01AC01BD018E
:10578000CF010895A29FB001B39FC001A39F700DE8
:10579000811D1124911DB29F700D811D1124911D39
:1057A00008955058BB27AA270E94E92B0C94C82CB7
:1057B0000E94BA2C38F00E94C12C20F039F49F3F8F
:1057C00019F426F40C94B72C0EF4E095E7FB0C9436
:1057D000B12CE92F0E94D92C58F3BA17620773072E
:1057E0008407950720F079F4A6F50C94FB2C0EF4B1
:1057F000E0950B2EBA2FA02D0B01B90190010C01E1
:10580000CA01A0011124FF27591B99F0593F50F4F8
:10581000503E68F11A16F040A22F232F342F442750
:10582000585FF3CF469537952795A795F040539548
:10583000C9F77EF41F16BA0B620B730B840BBAF018
:105840009150A1F0FF0FBB1F661F771F881FC2F783
:105850000EC0BA0F621F731F841F48F48795779597
:105860006795B795F7959E3F08F0B0CF9395880F51
:1058700008F09927EE0F9795879508950E94452C7B
:105880006894B1110C94FC2C08950E94E12C88F0CE
:105890009F5798F0B92F9927B751B0F0E1F0660FF4
:1058A000771F881F991F1AF0BA95C9F714C0B13035
:1058B00091F00E94FB2CB1E008950C94FB2C672F13
:1058C000782F8827B85F39F0B93FCCF38695779564
:1058D0006795B395D9F73EF490958095709561954D
:1058E0007F4F8F4F9F4F0895E89409C097FB3EF478
:1058F00090958095709561957F4F8F4F9F4F99231D
:10590000A9F0F92F96E9BB279395F695879577959A
:105910006795B795F111F8CFFAF4BB0F11F460FF5A
:105920001BC06F5F7F4F8F4F9F4F16C0882311F0B2
:1059300096E911C0772321F09EE8872F762F05C0C6
:10594000662371F096E8862F70E060E02AF09A9561
:10595000660F771F881FDAF7880F9695879597F956
:10596000089597F99F6780E870E060E008959FEFE1
:1059700080EC089500240A941616170618060906E6
:10598000089500240A9412161306140605060895B5
:10599000092E0394000C11F4882352F0BB0F40F43D
:1059A000BF2B11F460FF04C06F5F7F4F8F4F9F4F7D
:1059B000089557FD9058440F551F59F05F3F71F0FF
:1059C0004795880F97FB991F61F09F3F79F0879566
:1059D0000895121613061406551FF2CF4695F1DFEF
:1059E00008C0161617061806991FF1CF869571057F
:1059F000610508940895E894BB2766277727CB01B3
:105A000097F908950E94792D08F48FEF08950E9468
:105A10001A2D0C94C82C0E94BA2C38F00E94C12C6C
:105A200020F0952311F00C94B12C0C94B72C112478
:105A30000C94FC2C0E94D92C70F3959FC1F3950F08
:105A400050E0551F629FF001729FBB27F00DB11D02
:105A5000639FAA27F00DB11DAA1F649F6627B00D92
:105A6000A11D661F829F2227B00DA11D621F739F7B
:105A7000B00DA11D621F839FA00D611D221F749F89
:105A80003327A00D611D231F849F600D211D822FD0
:105A9000762F6A2F11249F5750409AF0F1F08823F7
:105AA0004AF0EE0FFF1FBB1F661F771F881F915024
:105AB0005040A9F79E3F510580F00C94B12C0C94F6
:105AC000FC2C5F3FE4F3983ED4F386957795679579
:105AD000B795F795E7959F5FC1F7FE2B880F911D4E
